{
  "_format": "hh3-artifact-1",
  "contractName": "CarbonFiCore",
  "sourceName": "contracts/CarbonFiCore.sol",
  "abi": [
    {
      "inputs": [
        {
          "internalType": "address",
          "name": "_certificateAddress",
          "type": "address"
        },
        {
          "internalType": "address",
          "name": "_tokenAddress",
          "type": "address"
        },
        {
          "internalType": "address",
          "name": "_proofAddress",
          "type": "address"
        }
      ],
      "stateMutability": "nonpayable",
      "type": "constructor"
    },
    {
      "inputs": [],
      "name": "AccessControlBadConfirmation",
      "type": "error"
    },
    {
      "inputs": [
        {
          "internalType": "address",
          "name": "account",
          "type": "address"
        },
        {
          "internalType": "bytes32",
          "name": "neededRole",
          "type": "bytes32"
        }
      ],
      "name": "AccessControlUnauthorizedAccount",
      "type": "error"
    },
    {
      "anonymous": false,
      "inputs": [
        {
          "indexed": true,
          "internalType": "uint256",
          "name": "projectId",
          "type": "uint256"
        },
        {
          "indexed": false,
          "internalType": "uint256",
          "name": "price",
          "type": "uint256"
        }
      ],
      "name": "PriceSet",
      "type": "event"
    },
    {
      "anonymous": false,
      "inputs": [
        {
          "indexed": true,
          "internalType": "uint256",
          "name": "projectId",
          "type": "uint256"
        },
        {
          "indexed": true,
          "internalType": "address",
          "name": "owner",
          "type": "address"
        },
        {
          "indexed": false,
          "internalType": "uint256",
          "name": "amount",
          "type": "uint256"
        },
        {
          "indexed": false,
          "internalType": "string",
          "name": "metadataUri",
          "type": "string"
        }
      ],
      "name": "ProjectRegistered",
      "type": "event"
    },
    {
      "anonymous": false,
      "inputs": [
        {
          "indexed": true,
          "internalType": "bytes32",
          "name": "role",
          "type": "bytes32"
        },
        {
          "indexed": true,
          "internalType": "bytes32",
          "name": "previousAdminRole",
          "type": "bytes32"
        },
        {
          "indexed": true,
          "internalType": "bytes32",
          "name": "newAdminRole",
          "type": "bytes32"
        }
      ],
      "name": "RoleAdminChanged",
      "type": "event"
    },
    {
      "anonymous": false,
      "inputs": [
        {
          "indexed": true,
          "internalType": "bytes32",
          "name": "role",
          "type": "bytes32"
        },
        {
          "indexed": true,
          "internalType": "address",
          "name": "account",
          "type": "address"
        },
        {
          "indexed": true,
          "internalType": "address",
          "name": "sender",
          "type": "address"
        }
      ],
      "name": "RoleGranted",
      "type": "event"
    },
    {
      "anonymous": false,
      "inputs": [
        {
          "indexed": true,
          "internalType": "bytes32",
          "name": "role",
          "type": "bytes32"
        },
        {
          "indexed": true,
          "internalType": "address",
          "name": "account",
          "type": "address"
        },
        {
          "indexed": true,
          "internalType": "address",
          "name": "sender",
          "type": "address"
        }
      ],
      "name": "RoleRevoked",
      "type": "event"
    },
    {
      "anonymous": false,
      "inputs": [
        {
          "indexed": true,
          "internalType": "uint256",
          "name": "projectId",
          "type": "uint256"
        },
        {
          "indexed": true,
          "internalType": "address",
          "name": "buyer",
          "type": "address"
        },
        {
          "indexed": true,
          "internalType": "address",
          "name": "seller",
          "type": "address"
        },
        {
          "indexed": false,
          "internalType": "uint256",
          "name": "amount",
          "type": "uint256"
        },
        {
          "indexed": false,
          "internalType": "uint256",
          "name": "totalCost",
          "type": "uint256"
        }
      ],
      "name": "TokensPurchased",
      "type": "event"
    },
    {
      "anonymous": false,
      "inputs": [
        {
          "indexed": true,
          "internalType": "uint256",
          "name": "projectId",
          "type": "uint256"
        },
        {
          "indexed": true,
          "internalType": "address",
          "name": "owner",
          "type": "address"
        },
        {
          "indexed": false,
          "internalType": "uint256",
          "name": "amount",
          "type": "uint256"
        }
      ],
      "name": "TokensRetired",
      "type": "event"
    },
    {
      "inputs": [],
      "name": "DEFAULT_ADMIN_ROLE",
      "outputs": [
        {
          "internalType": "bytes32",
          "name": "",
          "type": "bytes32"
        }
      ],
      "stateMutability": "view",
      "type": "function"
    },
    {
      "inputs": [],
      "name": "VERIFIER_ROLE",
      "outputs": [
        {
          "internalType": "bytes32",
          "name": "",
          "type": "bytes32"
        }
      ],
      "stateMutability": "view",
      "type": "function"
    },
    {
      "inputs": [
        {
          "internalType": "uint256",
          "name": "projectId",
          "type": "uint256"
        },
        {
          "internalType": "uint256",
          "name": "amount",
          "type": "uint256"
        }
      ],
      "name": "buyTokens",
      "outputs": [],
      "stateMutability": "payable",
      "type": "function"
    },
    {
      "inputs": [],
      "name": "certificateContract",
      "outputs": [
        {
          "internalType": "contract ProjectCertificate",
          "name": "",
          "type": "address"
        }
      ],
      "stateMutability": "view",
      "type": "function"
    },
    {
      "inputs": [
        {
          "internalType": "bytes32",
          "name": "role",
          "type": "bytes32"
        }
      ],
      "name": "getRoleAdmin",
      "outputs": [
        {
          "internalType": "bytes32",
          "name": "",
          "type": "bytes32"
        }
      ],
      "stateMutability": "view",
      "type": "function"
    },
    {
      "inputs": [
        {
          "internalType": "bytes32",
          "name": "role",
          "type": "bytes32"
        },
        {
          "internalType": "address",
          "name": "account",
          "type": "address"
        }
      ],
      "name": "grantRole",
      "outputs": [],
      "stateMutability": "nonpayable",
      "type": "function"
    },
    {
      "inputs": [],
      "name": "grantRolesToCore",
      "outputs": [],
      "stateMutability": "nonpayable",
      "type": "function"
    },
    {
      "inputs": [
        {
          "internalType": "bytes32",
          "name": "role",
          "type": "bytes32"
        },
        {
          "internalType": "address",
          "name": "account",
          "type": "address"
        }
      ],
      "name": "hasRole",
      "outputs": [
        {
          "internalType": "bool",
          "name": "",
          "type": "bool"
        }
      ],
      "stateMutability": "view",
      "type": "function"
    },
    {
      "inputs": [
        {
          "internalType": "bytes32",
          "name": "",
          "type": "bytes32"
        }
      ],
      "name": "isHashUsed",
      "outputs": [
        {
          "internalType": "bool",
          "name": "",
          "type": "bool"
        }
      ],
      "stateMutability": "view",
      "type": "function"
    },
    {
      "inputs": [
        {
          "internalType": "address",
          "name": "",
          "type": "address"
        },
        {
          "internalType": "address",
          "name": "",
          "type": "address"
        },
        {
          "internalType": "uint256[]",
          "name": "",
          "type": "uint256[]"
        },
        {
          "internalType": "uint256[]",
          "name": "",
          "type": "uint256[]"
        },
        {
          "internalType": "bytes",
          "name": "",
          "type": "bytes"
        }
      ],
      "name": "onERC1155BatchReceived",
      "outputs": [
        {
          "internalType": "bytes4",
          "name": "",
          "type": "bytes4"
        }
      ],
      "stateMutability": "nonpayable",
      "type": "function"
    },
    {
      "inputs": [
        {
          "internalType": "address",
          "name": "",
          "type": "address"
        },
        {
          "internalType": "address",
          "name": "",
          "type": "address"
        },
        {
          "internalType": "uint256",
          "name": "",
          "type": "uint256"
        },
        {
          "internalType": "uint256",
          "name": "",
          "type": "uint256"
        },
        {
          "internalType": "bytes",
          "name": "",
          "type": "bytes"
        }
      ],
      "name": "onERC1155Received",
      "outputs": [
        {
          "internalType": "bytes4",
          "name": "",
          "type": "bytes4"
        }
      ],
      "stateMutability": "nonpayable",
      "type": "function"
    },
    {
      "inputs": [],
      "name": "projectCount",
      "outputs": [
        {
          "internalType": "uint256",
          "name": "",
          "type": "uint256"
        }
      ],
      "stateMutability": "view",
      "type": "function"
    },
    {
      "inputs": [
        {
          "internalType": "uint256",
          "name": "",
          "type": "uint256"
        }
      ],
      "name": "projects",
      "outputs": [
        {
          "internalType": "address payable",
          "name": "owner",
          "type": "address"
        },
        {
          "internalType": "uint256",
          "name": "priceInWei",
          "type": "uint256"
        },
        {
          "internalType": "string",
          "name": "metadataUri",
          "type": "string"
        }
      ],
      "stateMutability": "view",
      "type": "function"
    },
    {
      "inputs": [],
      "name": "proofContract",
      "outputs": [
        {
          "internalType": "contract RetiredProof",
          "name": "",
          "type": "address"
        }
      ],
      "stateMutability": "view",
      "type": "function"
    },
    {
      "inputs": [
        {
          "internalType": "address",
          "name": "ngoWallet",
          "type": "address"
        },
        {
          "internalType": "uint256",
          "name": "amount",
          "type": "uint256"
        },
        {
          "internalType": "string",
          "name": "metadataUri",
          "type": "string"
        },
        {
          "internalType": "bytes32",
          "name": "certificateHash",
          "type": "bytes32"
        }
      ],
      "name": "registerProject",
      "outputs": [],
      "stateMutability": "nonpayable",
      "type": "function"
    },
    {
      "inputs": [
        {
          "internalType": "bytes32",
          "name": "role",
          "type": "bytes32"
        },
        {
          "internalType": "address",
          "name": "callerConfirmation",
          "type": "address"
        }
      ],
      "name": "renounceRole",
      "outputs": [],
      "stateMutability": "nonpayable",
      "type": "function"
    },
    {
      "inputs": [
        {
          "internalType": "uint256",
          "name": "projectId",
          "type": "uint256"
        },
        {
          "internalType": "uint256",
          "name": "amount",
          "type": "uint256"
        },
        {
          "internalType": "string",
          "name": "retirementUri",
          "type": "string"
        }
      ],
      "name": "retireTokens",
      "outputs": [],
      "stateMutability": "nonpayable",
      "type": "function"
    },
    {
      "inputs": [
        {
          "internalType": "bytes32",
          "name": "role",
          "type": "bytes32"
        },
        {
          "internalType": "address",
          "name": "account",
          "type": "address"
        }
      ],
      "name": "revokeRole",
      "outputs": [],
      "stateMutability": "nonpayable",
      "type": "function"
    },
    {
      "inputs": [
        {
          "internalType": "uint256",
          "name": "projectId",
          "type": "uint256"
        },
        {
          "internalType": "uint256",
          "name": "priceInWei",
          "type": "uint256"
        }
      ],
      "name": "setTokenPrice",
      "outputs": [],
      "stateMutability": "nonpayable",
      "type": "function"
    },
    {
      "inputs": [
        {
          "internalType": "bytes4",
          "name": "interfaceId",
          "type": "bytes4"
        }
      ],
      "name": "supportsInterface",
      "outputs": [
        {
          "internalType": "bool",
          "name": "",
          "type": "bool"
        }
      ],
      "stateMutability": "view",
      "type": "function"
    },
    {
      "inputs": [],
      "name": "tokenContract",
      "outputs": [
        {
          "internalType": "contract CarbonToken",
          "name": "",
          "type": "address"
        }
      ],
      "stateMutability": "view",
      "type": "function"
    }
  ],
  "bytecode": "0x608060405234801561000f575f5ffd5b506040516118a93803806118a983398101604081905261002e9161016d565b600380546001600160a01b038086166001600160a01b0319928316179092556004805485841690831617905560058054928416929091169190911790556100755f336100a9565b506100a07f0ce23c3e399818cfee81a7ab0880f714e53d7672b08df0fa62f2843416e1ea09336100a9565b505050506101ad565b5f828152602081815260408083206001600160a01b038516845290915281205460ff16610149575f838152602081815260408083206001600160a01b03861684529091529020805460ff191660011790556101013390565b6001600160a01b0316826001600160a01b0316847f2f8788117e7eff1d82e926ec794901d17c78024a50270940304540a733656f0d60405160405180910390a450600161014c565b505f5b92915050565b80516001600160a01b0381168114610168575f5ffd5b919050565b5f5f5f6060848603121561017f575f5ffd5b61018884610152565b925061019660208501610152565b91506101a460408501610152565b90509250925092565b6116ef806101ba5f395ff3fe608060405260043610610126575f3560e01c8063779c7ac3116100a8578063bc197c811161006d578063bc197c8114610343578063d547741f14610387578063e7705db6146103a6578063eb685c47146103d9578063f23a6e61146103f8578063f8106bf114610423575f5ffd5b8063779c7ac3146102c05780637975ce28146102df5780637b03fa0f146102f257806391d1485414610311578063a217fddf14610330575f5ffd5b806336568abe116100ee57806336568abe1461021757806336fbad26146102365780633dc44bbb1461024b578063552c83ef1461026a57806355a373d614610289575f5ffd5b806301ffc9a71461012a578063107046bd1461015e57806320021d8b1461018c578063248a9ca3146101ba5780632f2ff15d146101f6575b5f5ffd5b348015610135575f5ffd5b50610149610144366004611095565b610437565b60405190151581526020015b60405180910390f35b348015610169575f5ffd5b5061017d6101783660046110c3565b610447565b60405161015593929190611108565b348015610197575f5ffd5b506101496101a63660046110c3565b60066020525f908152604090205460ff1681565b3480156101c5575f5ffd5b506101e86101d43660046110c3565b5f9081526020819052604090206001015490565b604051908152602001610155565b348015610201575f5ffd5b50610215610210366004611152565b6104fb565b005b348015610222575f5ffd5b50610215610231366004611152565b610525565b348015610241575f5ffd5b506101e860015481565b348015610256575f5ffd5b50610215610265366004611233565b61055d565b348015610275575f5ffd5b5061021561028436600461127f565b610687565b348015610294575f5ffd5b506004546102a8906001600160a01b031681565b6040516001600160a01b039091168152602001610155565b3480156102cb575f5ffd5b506003546102a8906001600160a01b031681565b6102156102ed3660046112da565b610921565b3480156102fd575f5ffd5b506005546102a8906001600160a01b031681565b34801561031c575f5ffd5b5061014961032b366004611152565b610c6e565b34801561033b575f5ffd5b506101e85f81565b34801561034e575f5ffd5b5061036e61035d36600461137a565b63bc197c8160e01b95945050505050565b6040516001600160e01b03199091168152602001610155565b348015610392575f5ffd5b506102156103a1366004611152565b610c96565b3480156103b1575f5ffd5b506101e87f0ce23c3e399818cfee81a7ab0880f714e53d7672b08df0fa62f2843416e1ea0981565b3480156103e4575f5ffd5b506102156103f33660046112da565b610cba565b348015610403575f5ffd5b5061036e610412366004611429565b63f23a6e6160e01b95945050505050565b34801561042e575f5ffd5b50610215610dde565b5f61044182610efb565b92915050565b600260208190525f91825260409091208054600182015492820180546001600160a01b0390921693929161047a9061147d565b80601f01602080910402602001604051908101604052809291908181526020018280546104a69061147d565b80156104f15780601f106104c8576101008083540402835291602001916104f1565b820191905f5260205f20905b8154815290600101906020018083116104d457829003601f168201915b5050505050905083565b5f8281526020819052604090206001015461051581610f1f565b61051f8383610f2c565b50505050565b6001600160a01b038116331461054e5760405163334bd91960e11b815260040160405180910390fd5b6105588282610fbb565b505050565b5f82116105855760405162461bcd60e51b815260040161057c906114b5565b60405180910390fd5b60048054604051637a94c56560e11b8152339281019290925260248201859052604482018490526001600160a01b03169063f5298aca906064015f604051808303815f87803b1580156105d6575f5ffd5b505af11580156105e8573d5f5f3e3d5ffd5b5050600554604051636902622f60e11b81526001600160a01b03909116925063d204c45e915061061e90339085906004016114ea565b5f604051808303815f87803b158015610635575f5ffd5b505af1158015610647573d5f5f3e3d5ffd5b50506040518481523392508591507ff0574f956cbe7265184805f95bdc33458945da29c31d509fcc177e29b4018d829060200160405180910390a3505050565b7f0ce23c3e399818cfee81a7ab0880f714e53d7672b08df0fa62f2843416e1ea096106b181610f1f565b5f8281526006602052604090205460ff161561070f5760405162461bcd60e51b815260206004820152601d60248201527f4365727469666963617465206861736820616c72656164792075736564000000604482015260640161057c565b6001600160a01b03851661075a5760405162461bcd60e51b8152602060048201526012602482015271125b9d985b1a59081391d3c81dd85b1b195d60721b604482015260640161057c565b5f84116107795760405162461bcd60e51b815260040161057c906114b5565b5f828152600660205260408120805460ff191660019081179091558054916107a083611529565b909155505060018054604080516060810182526001600160a01b0389811682525f60208084018281528486018b815287845260029283905295909220845181546001600160a01b03191694169390931783559051958201959095559151929390929082019061080f908261158c565b5050600354604051633349e71f60e21b81526001600160a01b03909116915063cd279c7c9061084690899085908990600401611108565b5f604051808303815f87803b15801561085d575f5ffd5b505af115801561086f573d5f5f3e3d5ffd5b50506004805460405163bb7fde7160e01b81526001600160a01b03909116935063bb7fde7192506108a891309186918b918b9101611647565b5f604051808303815f87803b1580156108bf575f5ffd5b505af11580156108d1573d5f5f3e3d5ffd5b50505050856001600160a01b0316817f748ae8842c117f4184bba8a230aa90d16a1d34bfc9729c8395877d0ad8acbc6f8787604051610911929190611673565b60405180910390a3505050505050565b5f828152600260205260409020600181015481546001600160a01b03168161098b5760405162461bcd60e51b815260206004820152601e60248201527f5072696365206e6f742073657420666f7220746869732070726f6a6563740000604482015260640161057c565b6001600160a01b0381166109d55760405162461bcd60e51b8152602060048201526011602482015270141c9bda9958dd081b9bdd08199bdd5b99607a1b604482015260640161057c565b5f84116109f45760405162461bcd60e51b815260040161057c906114b5565b5f6109ff858461168b565b9050803414610a455760405162461bcd60e51b8152602060048201526012602482015271125b98dbdc9c9958dd08115512081cd95b9d60721b604482015260640161057c565b60048054604051627eeac760e11b81523092810192909252602482018890525f916001600160a01b039091169062fdd58e90604401602060405180830381865afa158015610a95573d5f5f3e3d5ffd5b505050506040513d601f19601f82011682018060405250810190610ab991906116a2565b905085811015610b0b5760405162461bcd60e51b815260206004820152601b60248201527f4e6f7420656e6f75676820746f6b656e7320696e20657363726f770000000000604482015260640161057c565b60048054604051637921219560e11b81523092810192909252336024830152604482018990526064820188905260a060848301525f60a48301526001600160a01b03169063f242432a9060c4015f604051808303815f87803b158015610b6f575f5ffd5b505af1158015610b81573d5f5f3e3d5ffd5b505050505f836001600160a01b0316836040515f6040518083038185875af1925050503d805f8114610bce576040519150601f19603f3d011682016040523d82523d5f602084013e610bd3565b606091505b5050905080610c1c5760405162461bcd60e51b815260206004820152601560248201527414185e5b595b9d081d1bc81391d3c819985a5b1959605a1b604482015260640161057c565b60408051888152602081018590526001600160a01b0386169133918b917f06a468bc780ea805d80491ed9f300c36122c94bcb715acc7a8606f510f6c2ecd910160405180910390a45050505050505050565b5f918252602082815260408084206001600160a01b0393909316845291905290205460ff1690565b5f82815260208190526040902060010154610cb081610f1f565b61051f8383610fbb565b7f0ce23c3e399818cfee81a7ab0880f714e53d7672b08df0fa62f2843416e1ea09610ce481610f1f565b5f838152600260205260409020546001600160a01b0316610d3b5760405162461bcd60e51b8152602060048201526011602482015270141c9bda9958dd081b9bdd08199bdd5b99607a1b604482015260640161057c565b5f8211610d8a5760405162461bcd60e51b815260206004820152601f60248201527f5072696365206d7573742062652067726561746572207468616e207a65726f00604482015260640161057c565b5f83815260026020526040908190206001018390555183907fa0f1665b7b659537b52deec61ea64d134a3bccda74c7f4e79f2246e7a8187a8a90610dd19085815260200190565b60405180910390a2505050565b5f610de881610f1f565b600354604051633549294760e11b81523060048201819052916001600160a01b031690636a92528e906024015f604051808303815f87803b158015610e2b575f5ffd5b505af1158015610e3d573d5f5f3e3d5ffd5b505060048054604051632b2e529160e11b81526001600160a01b03868116938201939093529116925063565ca52291506024015f604051808303815f87803b158015610e87575f5ffd5b505af1158015610e99573d5f5f3e3d5ffd5b5050600554604051633549294760e11b81526001600160a01b0385811660048301529091169250636a92528e91506024015f604051808303815f87803b158015610ee1575f5ffd5b505af1158015610ef3573d5f5f3e3d5ffd5b505050505050565b5f6001600160e01b03198216630271189760e51b1480610441575061044182611024565b610f298133611058565b50565b5f610f378383610c6e565b610fb4575f838152602081815260408083206001600160a01b03861684529091529020805460ff19166001179055610f6c3390565b6001600160a01b0316826001600160a01b0316847f2f8788117e7eff1d82e926ec794901d17c78024a50270940304540a733656f0d60405160405180910390a4506001610441565b505f610441565b5f610fc68383610c6e565b15610fb4575f838152602081815260408083206001600160a01b0386168085529252808320805460ff1916905551339286917ff6391f5c32d9c69d2a47ea670b442974b53935d1edc7fd64eb21e047a839171b9190a4506001610441565b5f6001600160e01b03198216637965db0b60e01b148061044157506301ffc9a760e01b6001600160e01b0319831614610441565b6110628282610c6e565b6110915760405163e2517d3f60e01b81526001600160a01b03821660048201526024810183905260440161057c565b5050565b5f602082840312156110a5575f5ffd5b81356001600160e01b0319811681146110bc575f5ffd5b9392505050565b5f602082840312156110d3575f5ffd5b5035919050565b5f81518084528060208401602086015e5f602082860101526020601f19601f83011685010191505092915050565b60018060a01b0384168152826020820152606060408201525f61112e60608301846110da565b95945050505050565b80356001600160a01b038116811461114d575f5ffd5b919050565b5f5f60408385031215611163575f5ffd5b8235915061117360208401611137565b90509250929050565b634e487b7160e01b5f52604160045260245ffd5b604051601f8201601f1916810167ffffffffffffffff811182821017156111b9576111b961117c565b604052919050565b5f82601f8301126111d0575f5ffd5b8135602083015f5f67ffffffffffffffff8411156111f0576111f061117c565b50601f8301601f191660200161120581611190565b915050828152858383011115611219575f5ffd5b828260208301375f92810160200192909252509392505050565b5f5f5f60608486031215611245575f5ffd5b8335925060208401359150604084013567ffffffffffffffff811115611269575f5ffd5b611275868287016111c1565b9150509250925092565b5f5f5f5f60808587031215611292575f5ffd5b61129b85611137565b935060208501359250604085013567ffffffffffffffff8111156112bd575f5ffd5b6112c9878288016111c1565b949793965093946060013593505050565b5f5f604083850312156112eb575f5ffd5b50508035926020909101359150565b5f82601f830112611309575f5ffd5b813567ffffffffffffffff8111156113235761132361117c565b8060051b61133360208201611190565b9182526020818501810192908101908684111561134e575f5ffd5b6020860192505b83831015611370578235825260209283019290910190611355565b9695505050505050565b5f5f5f5f5f60a0868803121561138e575f5ffd5b61139786611137565b94506113a560208701611137565b9350604086013567ffffffffffffffff8111156113c0575f5ffd5b6113cc888289016112fa565b935050606086013567ffffffffffffffff8111156113e8575f5ffd5b6113f4888289016112fa565b925050608086013567ffffffffffffffff811115611410575f5ffd5b61141c888289016111c1565b9150509295509295909350565b5f5f5f5f5f60a0868803121561143d575f5ffd5b61144686611137565b945061145460208701611137565b93506040860135925060608601359150608086013567ffffffffffffffff811115611410575f5ffd5b600181811c9082168061149157607f821691505b6020821081036114af57634e487b7160e01b5f52602260045260245ffd5b50919050565b6020808252818101527f416d6f756e74206d7573742062652067726561746572207468616e207a65726f604082015260600190565b6001600160a01b03831681526040602082018190525f9061150d908301846110da565b949350505050565b634e487b7160e01b5f52601160045260245ffd5b5f6001820161153a5761153a611515565b5060010190565b601f82111561055857805f5260205f20601f840160051c810160208510156115665750805b601f840160051c820191505b81811015611585575f8155600101611572565b5050505050565b815167ffffffffffffffff8111156115a6576115a661117c565b6115ba816115b4845461147d565b84611541565b6020601f8211600181146115ec575f83156115d55750848201515b5f19600385901b1c1916600184901b178455611585565b5f84815260208120601f198516915b8281101561161b57878501518255602094850194600190920191016115fb565b508482101561163857868401515f19600387901b60f8161c191681555b50505050600190811b01905550565b60018060a01b0385168152836020820152826040820152608060608201525f61137060808301846110da565b828152604060208201525f61150d60408301846110da565b808202811582820484141761044157610441611515565b5f602082840312156116b2575f5ffd5b505191905056fea26469706673582212203ee17b9f43373944d1bb5aff5c7c168ac981b8c1c8018af7e21fc7f7e062f8ce64736f6c634300081c0033",
  "linkReferences": {},
  "deployedLinkReferences": {},
  "immutableReferences": {},
  "inputSourceName": "project/contracts/CarbonFiCore.sol",
  "buildInfoId": "solc-0_8_28-b8b98a993b274de1b018defefab316fa907f6843"
}