{
  "_format": "hh3-artifact-1",
  "contractName": "CarbonToken",
  "sourceName": "contracts/CarbonToken.sol",
  "abi": [
    {
      "inputs": [],
      "stateMutability": "nonpayable",
      "type": "constructor"
    },
    {
      "inputs": [],
      "name": "AccessControlBadConfirmation",
      "type": "error"
    },
    {
      "inputs": [
        {
          "internalType": "address",
          "name": "account",
          "type": "address"
        },
        {
          "internalType": "bytes32",
          "name": "neededRole",
          "type": "bytes32"
        }
      ],
      "name": "AccessControlUnauthorizedAccount",
      "type": "error"
    },
    {
      "inputs": [
        {
          "internalType": "address",
          "name": "sender",
          "type": "address"
        },
        {
          "internalType": "uint256",
          "name": "balance",
          "type": "uint256"
        },
        {
          "internalType": "uint256",
          "name": "needed",
          "type": "uint256"
        },
        {
          "internalType": "uint256",
          "name": "tokenId",
          "type": "uint256"
        }
      ],
      "name": "ERC1155InsufficientBalance",
      "type": "error"
    },
    {
      "inputs": [
        {
          "internalType": "address",
          "name": "approver",
          "type": "address"
        }
      ],
      "name": "ERC1155InvalidApprover",
      "type": "error"
    },
    {
      "inputs": [
        {
          "internalType": "uint256",
          "name": "idsLength",
          "type": "uint256"
        },
        {
          "internalType": "uint256",
          "name": "valuesLength",
          "type": "uint256"
        }
      ],
      "name": "ERC1155InvalidArrayLength",
      "type": "error"
    },
    {
      "inputs": [
        {
          "internalType": "address",
          "name": "operator",
          "type": "address"
        }
      ],
      "name": "ERC1155InvalidOperator",
      "type": "error"
    },
    {
      "inputs": [
        {
          "internalType": "address",
          "name": "receiver",
          "type": "address"
        }
      ],
      "name": "ERC1155InvalidReceiver",
      "type": "error"
    },
    {
      "inputs": [
        {
          "internalType": "address",
          "name": "sender",
          "type": "address"
        }
      ],
      "name": "ERC1155InvalidSender",
      "type": "error"
    },
    {
      "inputs": [
        {
          "internalType": "address",
          "name": "operator",
          "type": "address"
        },
        {
          "internalType": "address",
          "name": "owner",
          "type": "address"
        }
      ],
      "name": "ERC1155MissingApprovalForAll",
      "type": "error"
    },
    {
      "anonymous": false,
      "inputs": [
        {
          "indexed": true,
          "internalType": "address",
          "name": "account",
          "type": "address"
        },
        {
          "indexed": true,
          "internalType": "address",
          "name": "operator",
          "type": "address"
        },
        {
          "indexed": false,
          "internalType": "bool",
          "name": "approved",
          "type": "bool"
        }
      ],
      "name": "ApprovalForAll",
      "type": "event"
    },
    {
      "anonymous": false,
      "inputs": [
        {
          "indexed": true,
          "internalType": "bytes32",
          "name": "role",
          "type": "bytes32"
        },
        {
          "indexed": true,
          "internalType": "bytes32",
          "name": "previousAdminRole",
          "type": "bytes32"
        },
        {
          "indexed": true,
          "internalType": "bytes32",
          "name": "newAdminRole",
          "type": "bytes32"
        }
      ],
      "name": "RoleAdminChanged",
      "type": "event"
    },
    {
      "anonymous": false,
      "inputs": [
        {
          "indexed": true,
          "internalType": "bytes32",
          "name": "role",
          "type": "bytes32"
        },
        {
          "indexed": true,
          "internalType": "address",
          "name": "account",
          "type": "address"
        },
        {
          "indexed": true,
          "internalType": "address",
          "name": "sender",
          "type": "address"
        }
      ],
      "name": "RoleGranted",
      "type": "event"
    },
    {
      "anonymous": false,
      "inputs": [
        {
          "indexed": true,
          "internalType": "bytes32",
          "name": "role",
          "type": "bytes32"
        },
        {
          "indexed": true,
          "internalType": "address",
          "name": "account",
          "type": "address"
        },
        {
          "indexed": true,
          "internalType": "address",
          "name": "sender",
          "type": "address"
        }
      ],
      "name": "RoleRevoked",
      "type": "event"
    },
    {
      "anonymous": false,
      "inputs": [
        {
          "indexed": true,
          "internalType": "address",
          "name": "operator",
          "type": "address"
        },
        {
          "indexed": true,
          "internalType": "address",
          "name": "from",
          "type": "address"
        },
        {
          "indexed": true,
          "internalType": "address",
          "name": "to",
          "type": "address"
        },
        {
          "indexed": false,
          "internalType": "uint256[]",
          "name": "ids",
          "type": "uint256[]"
        },
        {
          "indexed": false,
          "internalType": "uint256[]",
          "name": "values",
          "type": "uint256[]"
        }
      ],
      "name": "TransferBatch",
      "type": "event"
    },
    {
      "anonymous": false,
      "inputs": [
        {
          "indexed": true,
          "internalType": "address",
          "name": "operator",
          "type": "address"
        },
        {
          "indexed": true,
          "internalType": "address",
          "name": "from",
          "type": "address"
        },
        {
          "indexed": true,
          "internalType": "address",
          "name": "to",
          "type": "address"
        },
        {
          "indexed": false,
          "internalType": "uint256",
          "name": "id",
          "type": "uint256"
        },
        {
          "indexed": false,
          "internalType": "uint256",
          "name": "value",
          "type": "uint256"
        }
      ],
      "name": "TransferSingle",
      "type": "event"
    },
    {
      "anonymous": false,
      "inputs": [
        {
          "indexed": false,
          "internalType": "string",
          "name": "value",
          "type": "string"
        },
        {
          "indexed": true,
          "internalType": "uint256",
          "name": "id",
          "type": "uint256"
        }
      ],
      "name": "URI",
      "type": "event"
    },
    {
      "inputs": [],
      "name": "BURNER_ROLE",
      "outputs": [
        {
          "internalType": "bytes32",
          "name": "",
          "type": "bytes32"
        }
      ],
      "stateMutability": "view",
      "type": "function"
    },
    {
      "inputs": [],
      "name": "DEFAULT_ADMIN_ROLE",
      "outputs": [
        {
          "internalType": "bytes32",
          "name": "",
          "type": "bytes32"
        }
      ],
      "stateMutability": "view",
      "type": "function"
    },
    {
      "inputs": [],
      "name": "MINTER_ROLE",
      "outputs": [
        {
          "internalType": "bytes32",
          "name": "",
          "type": "bytes32"
        }
      ],
      "stateMutability": "view",
      "type": "function"
    },
    {
      "inputs": [
        {
          "internalType": "address",
          "name": "account",
          "type": "address"
        },
        {
          "internalType": "uint256",
          "name": "id",
          "type": "uint256"
        }
      ],
      "name": "balanceOf",
      "outputs": [
        {
          "internalType": "uint256",
          "name": "",
          "type": "uint256"
        }
      ],
      "stateMutability": "view",
      "type": "function"
    },
    {
      "inputs": [
        {
          "internalType": "address[]",
          "name": "accounts",
          "type": "address[]"
        },
        {
          "internalType": "uint256[]",
          "name": "ids",
          "type": "uint256[]"
        }
      ],
      "name": "balanceOfBatch",
      "outputs": [
        {
          "internalType": "uint256[]",
          "name": "",
          "type": "uint256[]"
        }
      ],
      "stateMutability": "view",
      "type": "function"
    },
    {
      "inputs": [
        {
          "internalType": "address",
          "name": "from",
          "type": "address"
        },
        {
          "internalType": "uint256",
          "name": "id",
          "type": "uint256"
        },
        {
          "internalType": "uint256",
          "name": "amount",
          "type": "uint256"
        }
      ],
      "name": "burn",
      "outputs": [],
      "stateMutability": "nonpayable",
      "type": "function"
    },
    {
      "inputs": [
        {
          "internalType": "bytes32",
          "name": "role",
          "type": "bytes32"
        }
      ],
      "name": "getRoleAdmin",
      "outputs": [
        {
          "internalType": "bytes32",
          "name": "",
          "type": "bytes32"
        }
      ],
      "stateMutability": "view",
      "type": "function"
    },
    {
      "inputs": [
        {
          "internalType": "bytes32",
          "name": "role",
          "type": "bytes32"
        },
        {
          "internalType": "address",
          "name": "account",
          "type": "address"
        }
      ],
      "name": "grantRole",
      "outputs": [],
      "stateMutability": "nonpayable",
      "type": "function"
    },
    {
      "inputs": [
        {
          "internalType": "bytes32",
          "name": "role",
          "type": "bytes32"
        },
        {
          "internalType": "address",
          "name": "account",
          "type": "address"
        }
      ],
      "name": "hasRole",
      "outputs": [
        {
          "internalType": "bool",
          "name": "",
          "type": "bool"
        }
      ],
      "stateMutability": "view",
      "type": "function"
    },
    {
      "inputs": [
        {
          "internalType": "address",
          "name": "account",
          "type": "address"
        },
        {
          "internalType": "address",
          "name": "operator",
          "type": "address"
        }
      ],
      "name": "isApprovedForAll",
      "outputs": [
        {
          "internalType": "bool",
          "name": "",
          "type": "bool"
        }
      ],
      "stateMutability": "view",
      "type": "function"
    },
    {
      "inputs": [
        {
          "internalType": "address",
          "name": "to",
          "type": "address"
        },
        {
          "internalType": "uint256",
          "name": "id",
          "type": "uint256"
        },
        {
          "internalType": "uint256",
          "name": "amount",
          "type": "uint256"
        },
        {
          "internalType": "string",
          "name": "tokenUri",
          "type": "string"
        }
      ],
      "name": "mint",
      "outputs": [],
      "stateMutability": "nonpayable",
      "type": "function"
    },
    {
      "inputs": [
        {
          "internalType": "bytes32",
          "name": "role",
          "type": "bytes32"
        },
        {
          "internalType": "address",
          "name": "callerConfirmation",
          "type": "address"
        }
      ],
      "name": "renounceRole",
      "outputs": [],
      "stateMutability": "nonpayable",
      "type": "function"
    },
    {
      "inputs": [
        {
          "internalType": "bytes32",
          "name": "role",
          "type": "bytes32"
        },
        {
          "internalType": "address",
          "name": "account",
          "type": "address"
        }
      ],
      "name": "revokeRole",
      "outputs": [],
      "stateMutability": "nonpayable",
      "type": "function"
    },
    {
      "inputs": [
        {
          "internalType": "address",
          "name": "from",
          "type": "address"
        },
        {
          "internalType": "address",
          "name": "to",
          "type": "address"
        },
        {
          "internalType": "uint256[]",
          "name": "ids",
          "type": "uint256[]"
        },
        {
          "internalType": "uint256[]",
          "name": "values",
          "type": "uint256[]"
        },
        {
          "internalType": "bytes",
          "name": "data",
          "type": "bytes"
        }
      ],
      "name": "safeBatchTransferFrom",
      "outputs": [],
      "stateMutability": "nonpayable",
      "type": "function"
    },
    {
      "inputs": [
        {
          "internalType": "address",
          "name": "from",
          "type": "address"
        },
        {
          "internalType": "address",
          "name": "to",
          "type": "address"
        },
        {
          "internalType": "uint256",
          "name": "id",
          "type": "uint256"
        },
        {
          "internalType": "uint256",
          "name": "value",
          "type": "uint256"
        },
        {
          "internalType": "bytes",
          "name": "data",
          "type": "bytes"
        }
      ],
      "name": "safeTransferFrom",
      "outputs": [],
      "stateMutability": "nonpayable",
      "type": "function"
    },
    {
      "inputs": [
        {
          "internalType": "address",
          "name": "operator",
          "type": "address"
        },
        {
          "internalType": "bool",
          "name": "approved",
          "type": "bool"
        }
      ],
      "name": "setApprovalForAll",
      "outputs": [],
      "stateMutability": "nonpayable",
      "type": "function"
    },
    {
      "inputs": [
        {
          "internalType": "address",
          "name": "coreAddress",
          "type": "address"
        }
      ],
      "name": "setupCoreRoles",
      "outputs": [],
      "stateMutability": "nonpayable",
      "type": "function"
    },
    {
      "inputs": [
        {
          "internalType": "bytes4",
          "name": "interfaceId",
          "type": "bytes4"
        }
      ],
      "name": "supportsInterface",
      "outputs": [
        {
          "internalType": "bool",
          "name": "",
          "type": "bool"
        }
      ],
      "stateMutability": "view",
      "type": "function"
    },
    {
      "inputs": [
        {
          "internalType": "uint256",
          "name": "tokenId",
          "type": "uint256"
        }
      ],
      "name": "uri",
      "outputs": [
        {
          "internalType": "string",
          "name": "",
          "type": "string"
        }
      ],
      "stateMutability": "view",
      "type": "function"
    }
  ],
  "bytecode": "0x608060405234801561000f575f5ffd5b5060408051602081019091525f81526100278161008e565b506100325f3361009e565b5061005d7f9f2df0fed2c77648de5860a4cc508cd0818c85b8b8a1ab4ceeef8d981c8956a63361009e565b506100887f3c11d16cbaffd01df69ce1c404f6340ee057498f5f00246190ea54220576a8483361009e565b5061029d565b600261009a82826101e3565b5050565b5f8281526003602090815260408083206001600160a01b038516845290915281205460ff16610142575f8381526003602090815260408083206001600160a01b03861684529091529020805460ff191660011790556100fa3390565b6001600160a01b0316826001600160a01b0316847f2f8788117e7eff1d82e926ec794901d17c78024a50270940304540a733656f0d60405160405180910390a4506001610145565b505f5b92915050565b634e487b7160e01b5f52604160045260245ffd5b600181811c9082168061017357607f821691505b60208210810361019157634e487b7160e01b5f52602260045260245ffd5b50919050565b601f8211156101de57805f5260205f20601f840160051c810160208510156101bc5750805b601f840160051c820191505b818110156101db575f81556001016101c8565b50505b505050565b81516001600160401b038111156101fc576101fc61014b565b6102108161020a845461015f565b84610197565b6020601f821160018114610242575f831561022b5750848201515b5f19600385901b1c1916600184901b1784556101db565b5f84815260208120601f198516915b828110156102715787850151825560209485019460019092019101610251565b508482101561028e57868401515f19600387901b60f8161c191681555b50505050600190811b01905550565b6117b1806102aa5f395ff3fe608060405234801561000f575f5ffd5b506004361061011b575f3560e01c8063565ca522116100a9578063d53913931161006e578063d53913931461027f578063d547741f146102a6578063e985e9c5146102b9578063f242432a146102cc578063f5298aca146102df575f5ffd5b8063565ca5221461022c57806391d148541461023f578063a217fddf14610252578063a22cb46514610259578063bb7fde711461026c575f5ffd5b8063282c51f3116100ef578063282c51f3146101aa5780632eb2c2d6146101d15780632f2ff15d146101e657806336568abe146101f95780634e1273f41461020c575f5ffd5b8062fdd58e1461011f57806301ffc9a7146101455780630e89341c14610168578063248a9ca314610188575b5f5ffd5b61013261012d366004610fd3565b6102f2565b6040519081526020015b60405180910390f35b610158610153366004611010565b610319565b604051901515815260200161013c565b61017b610176366004611032565b610323565b60405161013c9190611077565b610132610196366004611032565b5f9081526003602052604090206001015490565b6101327f3c11d16cbaffd01df69ce1c404f6340ee057498f5f00246190ea54220576a84881565b6101e46101df3660046111d2565b6103c2565b005b6101e46101f4366004611281565b61042e565b6101e4610207366004611281565b610458565b61021f61021a3660046112ab565b610490565b60405161013c91906113a8565b6101e461023a3660046113ba565b61055b565b61015861024d366004611281565b6105ba565b6101325f81565b6101e46102673660046113d3565b6105e4565b6101e461027a36600461140c565b6105f3565b6101327f9f2df0fed2c77648de5860a4cc508cd0818c85b8b8a1ab4ceeef8d981c8956a681565b6101e46102b4366004611281565b610675565b6101586102c736600461147c565b610699565b6101e46102da3660046114a4565b6106c6565b6101e46102ed3660046114f8565b610725565b5f818152602081815260408083206001600160a01b03861684529091529020545b92915050565b5f6103138261075a565b5f81815260046020526040902080546060919061033f90611528565b80601f016020809104026020016040519081016040528092919081815260200182805461036b90611528565b80156103b65780601f1061038d576101008083540402835291602001916103b6565b820191905f5260205f20905b81548152906001019060200180831161039957829003601f168201915b50505050509050919050565b336001600160a01b03861681148015906103e357506103e18682610699565b155b156104195760405163711bec9160e11b81526001600160a01b038083166004830152871660248201526044015b60405180910390fd5b610426868686868661077e565b505050505050565b5f82815260036020526040902060010154610448816107dc565b61045283836107e9565b50505050565b6001600160a01b03811633146104815760405163334bd91960e11b815260040160405180910390fd5b61048b828261087a565b505050565b606081518351146104c15781518351604051635b05999160e01b815260048101929092526024820152604401610410565b5f835167ffffffffffffffff8111156104dc576104dc611089565b604051908082528060200260200182016040528015610505578160200160208202803683370190505b5090505f5b84518110156105535760208082028601015161052e906020808402870101516102f2565b82828151811061054057610540611560565b602090810291909101015260010161050a565b509392505050565b5f610565816107dc565b61058f7f9f2df0fed2c77648de5860a4cc508cd0818c85b8b8a1ab4ceeef8d981c8956a6836107e9565b5061048b7f3c11d16cbaffd01df69ce1c404f6340ee057498f5f00246190ea54220576a848836107e9565b5f9182526003602090815260408084206001600160a01b0393909316845291905290205460ff1690565b6105ef3383836108e5565b5050565b7f9f2df0fed2c77648de5860a4cc508cd0818c85b8b8a1ab4ceeef8d981c8956a661061d816107dc565b61063785858560405180602001604052805f815250610979565b5f848152600460205260409020805461064f90611528565b90505f0361066e575f84815260046020526040902061042683826115b8565b5050505050565b5f8281526003602052604090206001015461068f816107dc565b610452838361087a565b6001600160a01b039182165f90815260016020908152604080832093909416825291909152205460ff1690565b336001600160a01b03861681148015906106e757506106e58682610699565b155b156107185760405163711bec9160e11b81526001600160a01b03808316600483015287166024820152604401610410565b61042686868686866109d4565b7f3c11d16cbaffd01df69ce1c404f6340ee057498f5f00246190ea54220576a84861074f816107dc565b610452848484610a60565b5f6001600160e01b03198216637965db0b60e01b1480610313575061031382610ac6565b6001600160a01b0384166107a757604051632bfa23e760e11b81525f6004820152602401610410565b6001600160a01b0385166107cf57604051626a0d4560e21b81525f6004820152602401610410565b61066e8585858585610b15565b6107e68133610b68565b50565b5f6107f483836105ba565b610873575f8381526003602090815260408083206001600160a01b03861684529091529020805460ff1916600117905561082b3390565b6001600160a01b0316826001600160a01b0316847f2f8788117e7eff1d82e926ec794901d17c78024a50270940304540a733656f0d60405160405180910390a4506001610313565b505f610313565b5f61088583836105ba565b15610873575f8381526003602090815260408083206001600160a01b0386168085529252808320805460ff1916905551339286917ff6391f5c32d9c69d2a47ea670b442974b53935d1edc7fd64eb21e047a839171b9190a4506001610313565b6001600160a01b03821661090d5760405162ced3e160e81b81525f6004820152602401610410565b6001600160a01b038381165f81815260016020908152604080832094871680845294825291829020805460ff191686151590811790915591519182527f17307eab39ab6107e8899845ad3d59bd9653f200f220920489ca2b5937696c31910160405180910390a3505050565b6001600160a01b0384166109a257604051632bfa23e760e11b81525f6004820152602401610410565b604080516001808252602082018690528183019081526060820185905260808201909252906104265f87848487610b15565b6001600160a01b0384166109fd57604051632bfa23e760e11b81525f6004820152602401610410565b6001600160a01b038516610a2557604051626a0d4560e21b81525f6004820152602401610410565b60408051600180825260208201869052818301908152606082018590526080820190925290610a578787848487610b15565b50505050505050565b6001600160a01b038316610a8857604051626a0d4560e21b81525f6004820152602401610410565b604080516001808252602082018590528183019081526060820184905260a082019092525f6080820181815291929161066e91879185908590610b15565b5f6001600160e01b03198216636cdb3d1360e11b1480610af657506001600160e01b031982166303a24d0760e21b145b8061031357506301ffc9a760e01b6001600160e01b0319831614610313565b610b2185858585610ba1565b6001600160a01b0384161561066e5782513390600103610b5a5760208481015190840151610b53838989858589610db0565b5050610426565b610426818787878787610ed1565b610b7282826105ba565b6105ef5760405163e2517d3f60e01b81526001600160a01b038216600482015260248101839052604401610410565b8051825114610bd05781518151604051635b05999160e01b815260048101929092526024820152604401610410565b335f5b8351811015610cd2576020818102858101820151908501909101516001600160a01b03881615610c84575f828152602081815260408083206001600160a01b038c16845290915290205481811015610c5e576040516303dee4c560e01b81526001600160a01b038a166004820152602481018290526044810183905260648101849052608401610410565b5f838152602081815260408083206001600160a01b038d16845290915290209082900390555b6001600160a01b03871615610cc8575f828152602081815260408083206001600160a01b038b16845290915281208054839290610cc2908490611673565b90915550505b5050600101610bd3565b508251600103610d525760208301515f906020840151909150856001600160a01b0316876001600160a01b0316846001600160a01b03167fc3d58168c5ae7397731d063d5bbf3d657854427343f4c083240f7aacaa2d0f628585604051610d43929190918252602082015260400190565b60405180910390a4505061066e565b836001600160a01b0316856001600160a01b0316826001600160a01b03167f4a39dc06d4c0dbc64b70af90fd698a233a518aa5d07e595d983b8c0526c8f7fb8686604051610da1929190611692565b60405180910390a45050505050565b6001600160a01b0384163b156104265760405163f23a6e6160e01b81526001600160a01b0385169063f23a6e6190610df490899089908890889088906004016116bf565b6020604051808303815f875af1925050508015610e2e575060408051601f3d908101601f19168201909252610e2b91810190611703565b60015b610e95573d808015610e5b576040519150601f19603f3d011682016040523d82523d5f602084013e610e60565b606091505b5080515f03610e8d57604051632bfa23e760e11b81526001600160a01b0386166004820152602401610410565b805160208201fd5b6001600160e01b0319811663f23a6e6160e01b14610a5757604051632bfa23e760e11b81526001600160a01b0386166004820152602401610410565b6001600160a01b0384163b156104265760405163bc197c8160e01b81526001600160a01b0385169063bc197c8190610f15908990899088908890889060040161171e565b6020604051808303815f875af1925050508015610f4f575060408051601f3d908101601f19168201909252610f4c91810190611703565b60015b610f7c573d808015610e5b576040519150601f19603f3d011682016040523d82523d5f602084013e610e60565b6001600160e01b0319811663bc197c8160e01b14610a5757604051632bfa23e760e11b81526001600160a01b0386166004820152602401610410565b80356001600160a01b0381168114610fce575f5ffd5b919050565b5f5f60408385031215610fe4575f5ffd5b610fed83610fb8565b946020939093013593505050565b6001600160e01b0319811681146107e6575f5ffd5b5f60208284031215611020575f5ffd5b813561102b81610ffb565b9392505050565b5f60208284031215611042575f5ffd5b5035919050565b5f81518084528060208401602086015e5f602082860101526020601f19601f83011685010191505092915050565b602081525f61102b6020830184611049565b634e487b7160e01b5f52604160045260245ffd5b604051601f8201601f1916810167ffffffffffffffff811182821017156110c6576110c6611089565b604052919050565b5f67ffffffffffffffff8211156110e7576110e7611089565b5060051b60200190565b5f82601f830112611100575f5ffd5b813561111361110e826110ce565b61109d565b8082825260208201915060208360051b860101925085831115611134575f5ffd5b602085015b83811015611151578035835260209283019201611139565b5095945050505050565b5f5f67ffffffffffffffff84111561117557611175611089565b50601f8301601f191660200161118a8161109d565b91505082815283838301111561119e575f5ffd5b828260208301375f602084830101529392505050565b5f82601f8301126111c3575f5ffd5b61102b8383356020850161115b565b5f5f5f5f5f60a086880312156111e6575f5ffd5b6111ef86610fb8565b94506111fd60208701610fb8565b9350604086013567ffffffffffffffff811115611218575f5ffd5b611224888289016110f1565b935050606086013567ffffffffffffffff811115611240575f5ffd5b61124c888289016110f1565b925050608086013567ffffffffffffffff811115611268575f5ffd5b611274888289016111b4565b9150509295509295909350565b5f5f60408385031215611292575f5ffd5b823591506112a260208401610fb8565b90509250929050565b5f5f604083850312156112bc575f5ffd5b823567ffffffffffffffff8111156112d2575f5ffd5b8301601f810185136112e2575f5ffd5b80356112f061110e826110ce565b8082825260208201915060208360051b850101925087831115611311575f5ffd5b6020840193505b8284101561133a5761132984610fb8565b825260209384019390910190611318565b9450505050602083013567ffffffffffffffff811115611358575f5ffd5b611364858286016110f1565b9150509250929050565b5f8151808452602084019350602083015f5b8281101561139e578151865260209586019590910190600101611380565b5093949350505050565b602081525f61102b602083018461136e565b5f602082840312156113ca575f5ffd5b61102b82610fb8565b5f5f604083850312156113e4575f5ffd5b6113ed83610fb8565b915060208301358015158114611401575f5ffd5b809150509250929050565b5f5f5f5f6080858703121561141f575f5ffd5b61142885610fb8565b93506020850135925060408501359150606085013567ffffffffffffffff811115611451575f5ffd5b8501601f81018713611461575f5ffd5b6114708782356020840161115b565b91505092959194509250565b5f5f6040838503121561148d575f5ffd5b61149683610fb8565b91506112a260208401610fb8565b5f5f5f5f5f60a086880312156114b8575f5ffd5b6114c186610fb8565b94506114cf60208701610fb8565b93506040860135925060608601359150608086013567ffffffffffffffff811115611268575f5ffd5b5f5f5f6060848603121561150a575f5ffd5b61151384610fb8565b95602085013595506040909401359392505050565b600181811c9082168061153c57607f821691505b60208210810361155a57634e487b7160e01b5f52602260045260245ffd5b50919050565b634e487b7160e01b5f52603260045260245ffd5b601f82111561048b57805f5260205f20601f840160051c810160208510156115995750805b601f840160051c820191505b8181101561066e575f81556001016115a5565b815167ffffffffffffffff8111156115d2576115d2611089565b6115e6816115e08454611528565b84611574565b6020601f821160018114611618575f83156116015750848201515b5f19600385901b1c1916600184901b17845561066e565b5f84815260208120601f198516915b828110156116475787850151825560209485019460019092019101611627565b508482101561166457868401515f19600387901b60f8161c191681555b50505050600190811b01905550565b8082018082111561031357634e487b7160e01b5f52601160045260245ffd5b604081525f6116a4604083018561136e565b82810360208401526116b6818561136e565b95945050505050565b6001600160a01b03868116825285166020820152604081018490526060810183905260a0608082018190525f906116f890830184611049565b979650505050505050565b5f60208284031215611713575f5ffd5b815161102b81610ffb565b6001600160a01b0386811682528516602082015260a0604082018190525f906117499083018661136e565b828103606084015261175b818661136e565b9050828103608084015261176f8185611049565b9897505050505050505056fea2646970667358221220ad1a8a85da4939aaf9f34cb7e23d863794f808822426e4793364fc6f43b71f7864736f6c634300081c0033",
  "linkReferences": {},
  "deployedLinkReferences": {},
  "immutableReferences": {},
  "inputSourceName": "project/contracts/CarbonToken.sol",
  "buildInfoId": "solc-0_8_28-2e362db737e220cebd7aa4f7d9bdef3fc4ea1e4e"
}