{
  "_format": "hh3-artifact-1",
  "contractName": "CarbonFiCore",
  "sourceName": "contracts/CarbonFiCore.sol",
  "abi": [
    {
      "inputs": [
        {
          "internalType": "address",
          "name": "_certificateAddress",
          "type": "address"
        },
        {
          "internalType": "address",
          "name": "_tokenAddress",
          "type": "address"
        },
        {
          "internalType": "address",
          "name": "_proofAddress",
          "type": "address"
        }
      ],
      "stateMutability": "nonpayable",
      "type": "constructor"
    },
    {
      "inputs": [],
      "name": "AccessControlBadConfirmation",
      "type": "error"
    },
    {
      "inputs": [
        {
          "internalType": "address",
          "name": "account",
          "type": "address"
        },
        {
          "internalType": "bytes32",
          "name": "neededRole",
          "type": "bytes32"
        }
      ],
      "name": "AccessControlUnauthorizedAccount",
      "type": "error"
    },
    {
      "anonymous": false,
      "inputs": [
        {
          "indexed": true,
          "internalType": "uint256",
          "name": "projectId",
          "type": "uint256"
        },
        {
          "indexed": false,
          "internalType": "uint256",
          "name": "price",
          "type": "uint256"
        }
      ],
      "name": "PriceSet",
      "type": "event"
    },
    {
      "anonymous": false,
      "inputs": [
        {
          "indexed": true,
          "internalType": "uint256",
          "name": "projectId",
          "type": "uint256"
        },
        {
          "indexed": true,
          "internalType": "address",
          "name": "owner",
          "type": "address"
        },
        {
          "indexed": false,
          "internalType": "uint256",
          "name": "amount",
          "type": "uint256"
        },
        {
          "indexed": false,
          "internalType": "string",
          "name": "metadataUri",
          "type": "string"
        }
      ],
      "name": "ProjectRegistered",
      "type": "event"
    },
    {
      "anonymous": false,
      "inputs": [
        {
          "indexed": true,
          "internalType": "bytes32",
          "name": "role",
          "type": "bytes32"
        },
        {
          "indexed": true,
          "internalType": "bytes32",
          "name": "previousAdminRole",
          "type": "bytes32"
        },
        {
          "indexed": true,
          "internalType": "bytes32",
          "name": "newAdminRole",
          "type": "bytes32"
        }
      ],
      "name": "RoleAdminChanged",
      "type": "event"
    },
    {
      "anonymous": false,
      "inputs": [
        {
          "indexed": true,
          "internalType": "bytes32",
          "name": "role",
          "type": "bytes32"
        },
        {
          "indexed": true,
          "internalType": "address",
          "name": "account",
          "type": "address"
        },
        {
          "indexed": true,
          "internalType": "address",
          "name": "sender",
          "type": "address"
        }
      ],
      "name": "RoleGranted",
      "type": "event"
    },
    {
      "anonymous": false,
      "inputs": [
        {
          "indexed": true,
          "internalType": "bytes32",
          "name": "role",
          "type": "bytes32"
        },
        {
          "indexed": true,
          "internalType": "address",
          "name": "account",
          "type": "address"
        },
        {
          "indexed": true,
          "internalType": "address",
          "name": "sender",
          "type": "address"
        }
      ],
      "name": "RoleRevoked",
      "type": "event"
    },
    {
      "anonymous": false,
      "inputs": [
        {
          "indexed": true,
          "internalType": "uint256",
          "name": "projectId",
          "type": "uint256"
        },
        {
          "indexed": true,
          "internalType": "address",
          "name": "buyer",
          "type": "address"
        },
        {
          "indexed": true,
          "internalType": "address",
          "name": "seller",
          "type": "address"
        },
        {
          "indexed": false,
          "internalType": "uint256",
          "name": "amount",
          "type": "uint256"
        },
        {
          "indexed": false,
          "internalType": "uint256",
          "name": "totalCost",
          "type": "uint256"
        }
      ],
      "name": "TokensPurchased",
      "type": "event"
    },
    {
      "anonymous": false,
      "inputs": [
        {
          "indexed": true,
          "internalType": "uint256",
          "name": "projectId",
          "type": "uint256"
        },
        {
          "indexed": true,
          "internalType": "address",
          "name": "owner",
          "type": "address"
        },
        {
          "indexed": false,
          "internalType": "uint256",
          "name": "amount",
          "type": "uint256"
        }
      ],
      "name": "TokensRetired",
      "type": "event"
    },
    {
      "inputs": [],
      "name": "DEFAULT_ADMIN_ROLE",
      "outputs": [
        {
          "internalType": "bytes32",
          "name": "",
          "type": "bytes32"
        }
      ],
      "stateMutability": "view",
      "type": "function"
    },
    {
      "inputs": [],
      "name": "VERIFIER_ROLE",
      "outputs": [
        {
          "internalType": "bytes32",
          "name": "",
          "type": "bytes32"
        }
      ],
      "stateMutability": "view",
      "type": "function"
    },
    {
      "inputs": [
        {
          "internalType": "uint256",
          "name": "projectId",
          "type": "uint256"
        },
        {
          "internalType": "uint256",
          "name": "amount",
          "type": "uint256"
        }
      ],
      "name": "buyTokens",
      "outputs": [],
      "stateMutability": "payable",
      "type": "function"
    },
    {
      "inputs": [],
      "name": "certificateContract",
      "outputs": [
        {
          "internalType": "contract ProjectCertificate",
          "name": "",
          "type": "address"
        }
      ],
      "stateMutability": "view",
      "type": "function"
    },
    {
      "inputs": [
        {
          "internalType": "bytes32",
          "name": "role",
          "type": "bytes32"
        }
      ],
      "name": "getRoleAdmin",
      "outputs": [
        {
          "internalType": "bytes32",
          "name": "",
          "type": "bytes32"
        }
      ],
      "stateMutability": "view",
      "type": "function"
    },
    {
      "inputs": [
        {
          "internalType": "bytes32",
          "name": "role",
          "type": "bytes32"
        },
        {
          "internalType": "address",
          "name": "account",
          "type": "address"
        }
      ],
      "name": "grantRole",
      "outputs": [],
      "stateMutability": "nonpayable",
      "type": "function"
    },
    {
      "inputs": [],
      "name": "grantRolesToCore",
      "outputs": [],
      "stateMutability": "nonpayable",
      "type": "function"
    },
    {
      "inputs": [
        {
          "internalType": "bytes32",
          "name": "role",
          "type": "bytes32"
        },
        {
          "internalType": "address",
          "name": "account",
          "type": "address"
        }
      ],
      "name": "hasRole",
      "outputs": [
        {
          "internalType": "bool",
          "name": "",
          "type": "bool"
        }
      ],
      "stateMutability": "view",
      "type": "function"
    },
    {
      "inputs": [
        {
          "internalType": "address",
          "name": "",
          "type": "address"
        },
        {
          "internalType": "address",
          "name": "",
          "type": "address"
        },
        {
          "internalType": "uint256[]",
          "name": "",
          "type": "uint256[]"
        },
        {
          "internalType": "uint256[]",
          "name": "",
          "type": "uint256[]"
        },
        {
          "internalType": "bytes",
          "name": "",
          "type": "bytes"
        }
      ],
      "name": "onERC1155BatchReceived",
      "outputs": [
        {
          "internalType": "bytes4",
          "name": "",
          "type": "bytes4"
        }
      ],
      "stateMutability": "nonpayable",
      "type": "function"
    },
    {
      "inputs": [
        {
          "internalType": "address",
          "name": "",
          "type": "address"
        },
        {
          "internalType": "address",
          "name": "",
          "type": "address"
        },
        {
          "internalType": "uint256",
          "name": "",
          "type": "uint256"
        },
        {
          "internalType": "uint256",
          "name": "",
          "type": "uint256"
        },
        {
          "internalType": "bytes",
          "name": "",
          "type": "bytes"
        }
      ],
      "name": "onERC1155Received",
      "outputs": [
        {
          "internalType": "bytes4",
          "name": "",
          "type": "bytes4"
        }
      ],
      "stateMutability": "nonpayable",
      "type": "function"
    },
    {
      "inputs": [
        {
          "internalType": "uint256",
          "name": "",
          "type": "uint256"
        }
      ],
      "name": "projectOwner",
      "outputs": [
        {
          "internalType": "address",
          "name": "",
          "type": "address"
        }
      ],
      "stateMutability": "view",
      "type": "function"
    },
    {
      "inputs": [],
      "name": "proofContract",
      "outputs": [
        {
          "internalType": "contract RetiredProof",
          "name": "",
          "type": "address"
        }
      ],
      "stateMutability": "view",
      "type": "function"
    },
    {
      "inputs": [
        {
          "internalType": "address",
          "name": "ngoWallet",
          "type": "address"
        },
        {
          "internalType": "uint256",
          "name": "amount",
          "type": "uint256"
        },
        {
          "internalType": "string",
          "name": "metadataUri",
          "type": "string"
        }
      ],
      "name": "registerProject",
      "outputs": [],
      "stateMutability": "nonpayable",
      "type": "function"
    },
    {
      "inputs": [
        {
          "internalType": "bytes32",
          "name": "role",
          "type": "bytes32"
        },
        {
          "internalType": "address",
          "name": "callerConfirmation",
          "type": "address"
        }
      ],
      "name": "renounceRole",
      "outputs": [],
      "stateMutability": "nonpayable",
      "type": "function"
    },
    {
      "inputs": [
        {
          "internalType": "uint256",
          "name": "projectId",
          "type": "uint256"
        },
        {
          "internalType": "uint256",
          "name": "amount",
          "type": "uint256"
        },
        {
          "internalType": "string",
          "name": "retirementUri",
          "type": "string"
        }
      ],
      "name": "retireTokens",
      "outputs": [],
      "stateMutability": "nonpayable",
      "type": "function"
    },
    {
      "inputs": [
        {
          "internalType": "bytes32",
          "name": "role",
          "type": "bytes32"
        },
        {
          "internalType": "address",
          "name": "account",
          "type": "address"
        }
      ],
      "name": "revokeRole",
      "outputs": [],
      "stateMutability": "nonpayable",
      "type": "function"
    },
    {
      "inputs": [
        {
          "internalType": "uint256",
          "name": "projectId",
          "type": "uint256"
        },
        {
          "internalType": "uint256",
          "name": "priceInWei",
          "type": "uint256"
        }
      ],
      "name": "setTokenPrice",
      "outputs": [],
      "stateMutability": "nonpayable",
      "type": "function"
    },
    {
      "inputs": [
        {
          "internalType": "bytes4",
          "name": "interfaceId",
          "type": "bytes4"
        }
      ],
      "name": "supportsInterface",
      "outputs": [
        {
          "internalType": "bool",
          "name": "",
          "type": "bool"
        }
      ],
      "stateMutability": "view",
      "type": "function"
    },
    {
      "inputs": [],
      "name": "tokenContract",
      "outputs": [
        {
          "internalType": "contract CarbonToken",
          "name": "",
          "type": "address"
        }
      ],
      "stateMutability": "view",
      "type": "function"
    },
    {
      "inputs": [
        {
          "internalType": "uint256",
          "name": "",
          "type": "uint256"
        }
      ],
      "name": "tokenPriceInWei",
      "outputs": [
        {
          "internalType": "uint256",
          "name": "",
          "type": "uint256"
        }
      ],
      "stateMutability": "view",
      "type": "function"
    }
  ],
  "bytecode": "0x608060405260018055348015610013575f5ffd5b506040516115b93803806115b983398101604081905261003291610171565b600280546001600160a01b038086166001600160a01b0319928316179092556003805485841690831617905560048054928416929091169190911790556100795f336100ad565b506100a47f0ce23c3e399818cfee81a7ab0880f714e53d7672b08df0fa62f2843416e1ea09336100ad565b505050506101b1565b5f828152602081815260408083206001600160a01b038516845290915281205460ff1661014d575f838152602081815260408083206001600160a01b03861684529091529020805460ff191660011790556101053390565b6001600160a01b0316826001600160a01b0316847f2f8788117e7eff1d82e926ec794901d17c78024a50270940304540a733656f0d60405160405180910390a4506001610150565b505f5b92915050565b80516001600160a01b038116811461016c575f5ffd5b919050565b5f5f5f60608486031215610183575f5ffd5b61018c84610156565b925061019a60208501610156565b91506101a860408501610156565b90509250925092565b6113fb806101be5f395ff3fe60806040526004361061011b575f3560e01c8063819cd7ea1161009d578063d547741f11610062578063d547741f1461036a578063e7705db614610389578063eb685c47146103bc578063f23a6e61146103db578063f8106bf114610406575f5ffd5b8063819cd7ea1461029557806389fe08f8146102c057806391d14854146102f4578063a217fddf14610313578063bc197c8114610326575f5ffd5b80633dc44bbb116100e35780633dc44bbb146101ee57806355a373d61461020d578063779c7ac3146102445780637975ce28146102635780637b03fa0f14610276575f5ffd5b806301ffc9a71461011f578063151e964d14610153578063248a9ca3146101745780632f2ff15d146101b057806336568abe146101cf575b5f5ffd5b34801561012a575f5ffd5b5061013e610139366004610efd565b61041a565b60405190151581526020015b60405180910390f35b34801561015e575f5ffd5b5061017261016d366004610ffd565b61042a565b005b34801561017f575f5ffd5b506101a261018e366004611050565b5f9081526020819052604090206001015490565b60405190815260200161014a565b3480156101bb575f5ffd5b506101726101ca366004611067565b61060c565b3480156101da575f5ffd5b506101726101e9366004611067565b610636565b3480156101f9575f5ffd5b50610172610208366004611091565b61066e565b348015610218575f5ffd5b5060035461022c906001600160a01b031681565b6040516001600160a01b03909116815260200161014a565b34801561024f575f5ffd5b5060025461022c906001600160a01b031681565b6101726102713660046110c7565b61078d565b348015610281575f5ffd5b5060045461022c906001600160a01b031681565b3480156102a0575f5ffd5b506101a26102af366004611050565b60066020525f908152604090205481565b3480156102cb575f5ffd5b5061022c6102da366004611050565b60056020525f90815260409020546001600160a01b031681565b3480156102ff575f5ffd5b5061013e61030e366004611067565b610ad9565b34801561031e575f5ffd5b506101a25f81565b348015610331575f5ffd5b50610351610340366004611167565b63bc197c8160e01b95945050505050565b6040516001600160e01b0319909116815260200161014a565b348015610375575f5ffd5b50610172610384366004611067565b610b01565b348015610394575f5ffd5b506101a27f0ce23c3e399818cfee81a7ab0880f714e53d7672b08df0fa62f2843416e1ea0981565b3480156103c7575f5ffd5b506101726103d63660046110c7565b610b25565b3480156103e6575f5ffd5b506103516103f5366004611216565b63f23a6e6160e01b95945050505050565b348015610411575f5ffd5b50610172610c46565b5f61042482610d63565b92915050565b7f0ce23c3e399818cfee81a7ab0880f714e53d7672b08df0fa62f2843416e1ea0961045481610d87565b6001600160a01b0384166104a45760405162461bcd60e51b8152602060048201526012602482015271125b9d985b1a59081391d3c81dd85b1b195d60721b60448201526064015b60405180910390fd5b5f83116104c35760405162461bcd60e51b815260040161049b9061126a565b600180549081905f6104d4836112b3565b9091555050600254604051633349e71f60e21b81526001600160a01b039091169063cd279c7c9061050d908890859088906004016112f9565b5f604051808303815f87803b158015610524575f5ffd5b505af1158015610536573d5f5f3e3d5ffd5b505060035460405163bb7fde7160e01b81526001600160a01b03909116925063bb7fde719150610570903090859089908990600401611328565b5f604051808303815f87803b158015610587575f5ffd5b505af1158015610599573d5f5f3e3d5ffd5b5050505f828152600560205260409081902080546001600160a01b0319166001600160a01b038916908117909155905190915082907f748ae8842c117f4184bba8a230aa90d16a1d34bfc9729c8395877d0ad8acbc6f906105fd9088908890611354565b60405180910390a35050505050565b5f8281526020819052604090206001015461062681610d87565b6106308383610d94565b50505050565b6001600160a01b038116331461065f5760405163334bd91960e11b815260040160405180910390fd5b6106698282610e23565b505050565b5f821161068d5760405162461bcd60e51b815260040161049b9061126a565b600354604051637a94c56560e11b815233600482015260248101859052604481018490526001600160a01b039091169063f5298aca906064015f604051808303815f87803b1580156106dd575f5ffd5b505af11580156106ef573d5f5f3e3d5ffd5b505060048054604051636902622f60e11b81526001600160a01b03909116935063d204c45e9250610724913391869101611374565b5f604051808303815f87803b15801561073b575f5ffd5b505af115801561074d573d5f5f3e3d5ffd5b50506040518481523392508591507ff0574f956cbe7265184805f95bdc33458945da29c31d509fcc177e29b4018d829060200160405180910390a3505050565b5f828152600660209081526040808320546005909252909120546001600160a01b0316816107fd5760405162461bcd60e51b815260206004820152601e60248201527f5072696365206e6f742073657420666f7220746869732070726f6a6563740000604482015260640161049b565b6001600160a01b0381166108475760405162461bcd60e51b8152602060048201526011602482015270141c9bda9958dd081b9bdd08199bdd5b99607a1b604482015260640161049b565b5f83116108665760405162461bcd60e51b815260040161049b9061126a565b5f6108718484611397565b90508034146108b75760405162461bcd60e51b8152602060048201526012602482015271125b98dbdc9c9958dd08115512081cd95b9d60721b604482015260640161049b565b600354604051627eeac760e11b8152306004820152602481018790525f916001600160a01b03169062fdd58e90604401602060405180830381865afa158015610902573d5f5f3e3d5ffd5b505050506040513d601f19601f8201168201806040525081019061092691906113ae565b9050848110156109785760405162461bcd60e51b815260206004820152601b60248201527f4e6f7420656e6f75676820746f6b656e7320696e20657363726f770000000000604482015260640161049b565b5f836001600160a01b0316836040515f6040518083038185875af1925050503d805f81146109c1576040519150601f19603f3d011682016040523d82523d5f602084013e6109c6565b606091505b5050905080610a0f5760405162461bcd60e51b815260206004820152601560248201527414185e5b595b9d081d1bc81391d3c819985a5b1959605a1b604482015260640161049b565b600354604051637921219560e11b8152306004820152336024820152604481018990526064810188905260a060848201525f60a48201526001600160a01b039091169063f242432a9060c4015f604051808303815f87803b158015610a72575f5ffd5b505af1158015610a84573d5f5f3e3d5ffd5b505060408051898152602081018790526001600160a01b03881693503392508a917f06a468bc780ea805d80491ed9f300c36122c94bcb715acc7a8606f510f6c2ecd910160405180910390a450505050505050565b5f918252602082815260408084206001600160a01b0393909316845291905290205460ff1690565b5f82815260208190526040902060010154610b1b81610d87565b6106308383610e23565b7f0ce23c3e399818cfee81a7ab0880f714e53d7672b08df0fa62f2843416e1ea09610b4f81610d87565b5f838152600560205260409020546001600160a01b0316610ba65760405162461bcd60e51b8152602060048201526011602482015270141c9bda9958dd081b9bdd08199bdd5b99607a1b604482015260640161049b565b5f8211610bf55760405162461bcd60e51b815260206004820152601f60248201527f5072696365206d7573742062652067726561746572207468616e207a65726f00604482015260640161049b565b5f83815260066020526040908190208390555183907fa0f1665b7b659537b52deec61ea64d134a3bccda74c7f4e79f2246e7a8187a8a90610c399085815260200190565b60405180910390a2505050565b5f610c5081610d87565b600254604051633549294760e11b81523060048201819052916001600160a01b031690636a92528e906024015f604051808303815f87803b158015610c93575f5ffd5b505af1158015610ca5573d5f5f3e3d5ffd5b5050600354604051632b2e529160e11b81526001600160a01b038581166004830152909116925063565ca52291506024015f604051808303815f87803b158015610ced575f5ffd5b505af1158015610cff573d5f5f3e3d5ffd5b505060048054604051633549294760e11b81526001600160a01b038681169382019390935291169250636a92528e91506024015f604051808303815f87803b158015610d49575f5ffd5b505af1158015610d5b573d5f5f3e3d5ffd5b505050505050565b5f6001600160e01b03198216630271189760e51b1480610424575061042482610e8c565b610d918133610ec0565b50565b5f610d9f8383610ad9565b610e1c575f838152602081815260408083206001600160a01b03861684529091529020805460ff19166001179055610dd43390565b6001600160a01b0316826001600160a01b0316847f2f8788117e7eff1d82e926ec794901d17c78024a50270940304540a733656f0d60405160405180910390a4506001610424565b505f610424565b5f610e2e8383610ad9565b15610e1c575f838152602081815260408083206001600160a01b0386168085529252808320805460ff1916905551339286917ff6391f5c32d9c69d2a47ea670b442974b53935d1edc7fd64eb21e047a839171b9190a4506001610424565b5f6001600160e01b03198216637965db0b60e01b148061042457506301ffc9a760e01b6001600160e01b0319831614610424565b610eca8282610ad9565b610ef95760405163e2517d3f60e01b81526001600160a01b03821660048201526024810183905260440161049b565b5050565b5f60208284031215610f0d575f5ffd5b81356001600160e01b031981168114610f24575f5ffd5b9392505050565b80356001600160a01b0381168114610f41575f5ffd5b919050565b634e487b7160e01b5f52604160045260245ffd5b604051601f8201601f1916810167ffffffffffffffff81118282101715610f8357610f83610f46565b604052919050565b5f82601f830112610f9a575f5ffd5b8135602083015f5f67ffffffffffffffff841115610fba57610fba610f46565b50601f8301601f1916602001610fcf81610f5a565b915050828152858383011115610fe3575f5ffd5b828260208301375f92810160200192909252509392505050565b5f5f5f6060848603121561100f575f5ffd5b61101884610f2b565b925060208401359150604084013567ffffffffffffffff81111561103a575f5ffd5b61104686828701610f8b565b9150509250925092565b5f60208284031215611060575f5ffd5b5035919050565b5f5f60408385031215611078575f5ffd5b8235915061108860208401610f2b565b90509250929050565b5f5f5f606084860312156110a3575f5ffd5b8335925060208401359150604084013567ffffffffffffffff81111561103a575f5ffd5b5f5f604083850312156110d8575f5ffd5b50508035926020909101359150565b5f82601f8301126110f6575f5ffd5b813567ffffffffffffffff81111561111057611110610f46565b8060051b61112060208201610f5a565b9182526020818501810192908101908684111561113b575f5ffd5b6020860192505b8383101561115d578235825260209283019290910190611142565b9695505050505050565b5f5f5f5f5f60a0868803121561117b575f5ffd5b61118486610f2b565b945061119260208701610f2b565b9350604086013567ffffffffffffffff8111156111ad575f5ffd5b6111b9888289016110e7565b935050606086013567ffffffffffffffff8111156111d5575f5ffd5b6111e1888289016110e7565b925050608086013567ffffffffffffffff8111156111fd575f5ffd5b61120988828901610f8b565b9150509295509295909350565b5f5f5f5f5f60a0868803121561122a575f5ffd5b61123386610f2b565b945061124160208701610f2b565b93506040860135925060608601359150608086013567ffffffffffffffff8111156111fd575f5ffd5b6020808252818101527f416d6f756e74206d7573742062652067726561746572207468616e207a65726f604082015260600190565b634e487b7160e01b5f52601160045260245ffd5b5f600182016112c4576112c461129f565b5060010190565b5f81518084528060208401602086015e5f602082860101526020601f19601f83011685010191505092915050565b60018060a01b0384168152826020820152606060408201525f61131f60608301846112cb565b95945050505050565b60018060a01b0385168152836020820152826040820152608060608201525f61115d60808301846112cb565b828152604060208201525f61136c60408301846112cb565b949350505050565b6001600160a01b03831681526040602082018190525f9061136c908301846112cb565b80820281158282048414176104245761042461129f565b5f602082840312156113be575f5ffd5b505191905056fea2646970667358221220e3bb53488743749098c633c3e0f5063392a50f09288ff5c52da154497107156a64736f6c634300081c0033",
  "linkReferences": {},
  "deployedLinkReferences": {},
  "immutableReferences": {},
  "inputSourceName": "project/contracts/CarbonFiCore.sol",
  "buildInfoId": "solc-0_8_28-2e362db737e220cebd7aa4f7d9bdef3fc4ea1e4e"
}