{
  "_format": "hh3-artifact-1",
  "contractName": "CarbonFiCore",
  "sourceName": "contracts/CarbonFiCore.sol",
  "abi": [
    {
      "inputs": [
        {
          "internalType": "address",
          "name": "_certificateAddress",
          "type": "address"
        },
        {
          "internalType": "address",
          "name": "_tokenAddress",
          "type": "address"
        },
        {
          "internalType": "address",
          "name": "_proofAddress",
          "type": "address"
        }
      ],
      "stateMutability": "nonpayable",
      "type": "constructor"
    },
    {
      "inputs": [],
      "name": "AccessControlBadConfirmation",
      "type": "error"
    },
    {
      "inputs": [
        {
          "internalType": "address",
          "name": "account",
          "type": "address"
        },
        {
          "internalType": "bytes32",
          "name": "neededRole",
          "type": "bytes32"
        }
      ],
      "name": "AccessControlUnauthorizedAccount",
      "type": "error"
    },
    {
      "anonymous": false,
      "inputs": [
        {
          "indexed": true,
          "internalType": "uint256",
          "name": "projectId",
          "type": "uint256"
        },
        {
          "indexed": false,
          "internalType": "uint256",
          "name": "price",
          "type": "uint256"
        }
      ],
      "name": "PriceSet",
      "type": "event"
    },
    {
      "anonymous": false,
      "inputs": [
        {
          "indexed": true,
          "internalType": "uint256",
          "name": "projectId",
          "type": "uint256"
        },
        {
          "indexed": true,
          "internalType": "address",
          "name": "owner",
          "type": "address"
        },
        {
          "indexed": false,
          "internalType": "uint256",
          "name": "amount",
          "type": "uint256"
        },
        {
          "indexed": false,
          "internalType": "string",
          "name": "metadataUri",
          "type": "string"
        }
      ],
      "name": "ProjectRegistered",
      "type": "event"
    },
    {
      "anonymous": false,
      "inputs": [
        {
          "indexed": true,
          "internalType": "bytes32",
          "name": "role",
          "type": "bytes32"
        },
        {
          "indexed": true,
          "internalType": "bytes32",
          "name": "previousAdminRole",
          "type": "bytes32"
        },
        {
          "indexed": true,
          "internalType": "bytes32",
          "name": "newAdminRole",
          "type": "bytes32"
        }
      ],
      "name": "RoleAdminChanged",
      "type": "event"
    },
    {
      "anonymous": false,
      "inputs": [
        {
          "indexed": true,
          "internalType": "bytes32",
          "name": "role",
          "type": "bytes32"
        },
        {
          "indexed": true,
          "internalType": "address",
          "name": "account",
          "type": "address"
        },
        {
          "indexed": true,
          "internalType": "address",
          "name": "sender",
          "type": "address"
        }
      ],
      "name": "RoleGranted",
      "type": "event"
    },
    {
      "anonymous": false,
      "inputs": [
        {
          "indexed": true,
          "internalType": "bytes32",
          "name": "role",
          "type": "bytes32"
        },
        {
          "indexed": true,
          "internalType": "address",
          "name": "account",
          "type": "address"
        },
        {
          "indexed": true,
          "internalType": "address",
          "name": "sender",
          "type": "address"
        }
      ],
      "name": "RoleRevoked",
      "type": "event"
    },
    {
      "anonymous": false,
      "inputs": [
        {
          "indexed": true,
          "internalType": "uint256",
          "name": "projectId",
          "type": "uint256"
        },
        {
          "indexed": true,
          "internalType": "address",
          "name": "buyer",
          "type": "address"
        },
        {
          "indexed": true,
          "internalType": "address",
          "name": "seller",
          "type": "address"
        },
        {
          "indexed": false,
          "internalType": "uint256",
          "name": "amount",
          "type": "uint256"
        },
        {
          "indexed": false,
          "internalType": "uint256",
          "name": "totalCost",
          "type": "uint256"
        }
      ],
      "name": "TokensPurchased",
      "type": "event"
    },
    {
      "anonymous": false,
      "inputs": [
        {
          "indexed": true,
          "internalType": "uint256",
          "name": "projectId",
          "type": "uint256"
        },
        {
          "indexed": true,
          "internalType": "address",
          "name": "owner",
          "type": "address"
        },
        {
          "indexed": false,
          "internalType": "uint256",
          "name": "amount",
          "type": "uint256"
        }
      ],
      "name": "TokensRetired",
      "type": "event"
    },
    {
      "inputs": [],
      "name": "DEFAULT_ADMIN_ROLE",
      "outputs": [
        {
          "internalType": "bytes32",
          "name": "",
          "type": "bytes32"
        }
      ],
      "stateMutability": "view",
      "type": "function"
    },
    {
      "inputs": [],
      "name": "VERIFIER_ROLE",
      "outputs": [
        {
          "internalType": "bytes32",
          "name": "",
          "type": "bytes32"
        }
      ],
      "stateMutability": "view",
      "type": "function"
    },
    {
      "inputs": [
        {
          "internalType": "uint256",
          "name": "projectId",
          "type": "uint256"
        },
        {
          "internalType": "uint256",
          "name": "amount",
          "type": "uint256"
        }
      ],
      "name": "buyTokens",
      "outputs": [],
      "stateMutability": "payable",
      "type": "function"
    },
    {
      "inputs": [],
      "name": "certificateContract",
      "outputs": [
        {
          "internalType": "contract ProjectCertificate",
          "name": "",
          "type": "address"
        }
      ],
      "stateMutability": "view",
      "type": "function"
    },
    {
      "inputs": [
        {
          "internalType": "address",
          "name": "user",
          "type": "address"
        }
      ],
      "name": "getProjectsByUserAddress",
      "outputs": [
        {
          "internalType": "uint256[]",
          "name": "",
          "type": "uint256[]"
        }
      ],
      "stateMutability": "view",
      "type": "function"
    },
    {
      "inputs": [
        {
          "internalType": "bytes32",
          "name": "role",
          "type": "bytes32"
        }
      ],
      "name": "getRoleAdmin",
      "outputs": [
        {
          "internalType": "bytes32",
          "name": "",
          "type": "bytes32"
        }
      ],
      "stateMutability": "view",
      "type": "function"
    },
    {
      "inputs": [
        {
          "internalType": "bytes32",
          "name": "role",
          "type": "bytes32"
        },
        {
          "internalType": "address",
          "name": "account",
          "type": "address"
        }
      ],
      "name": "grantRole",
      "outputs": [],
      "stateMutability": "nonpayable",
      "type": "function"
    },
    {
      "inputs": [],
      "name": "grantRolesToCore",
      "outputs": [],
      "stateMutability": "nonpayable",
      "type": "function"
    },
    {
      "inputs": [
        {
          "internalType": "bytes32",
          "name": "role",
          "type": "bytes32"
        },
        {
          "internalType": "address",
          "name": "account",
          "type": "address"
        }
      ],
      "name": "hasRole",
      "outputs": [
        {
          "internalType": "bool",
          "name": "",
          "type": "bool"
        }
      ],
      "stateMutability": "view",
      "type": "function"
    },
    {
      "inputs": [
        {
          "internalType": "address",
          "name": "user",
          "type": "address"
        },
        {
          "internalType": "uint256",
          "name": "projectId",
          "type": "uint256"
        }
      ],
      "name": "hasUserBought",
      "outputs": [
        {
          "internalType": "bool",
          "name": "",
          "type": "bool"
        }
      ],
      "stateMutability": "view",
      "type": "function"
    },
    {
      "inputs": [
        {
          "internalType": "bytes32",
          "name": "",
          "type": "bytes32"
        }
      ],
      "name": "isHashUsed",
      "outputs": [
        {
          "internalType": "bool",
          "name": "",
          "type": "bool"
        }
      ],
      "stateMutability": "view",
      "type": "function"
    },
    {
      "inputs": [
        {
          "internalType": "address",
          "name": "",
          "type": "address"
        },
        {
          "internalType": "address",
          "name": "",
          "type": "address"
        },
        {
          "internalType": "uint256[]",
          "name": "",
          "type": "uint256[]"
        },
        {
          "internalType": "uint256[]",
          "name": "",
          "type": "uint256[]"
        },
        {
          "internalType": "bytes",
          "name": "",
          "type": "bytes"
        }
      ],
      "name": "onERC1155BatchReceived",
      "outputs": [
        {
          "internalType": "bytes4",
          "name": "",
          "type": "bytes4"
        }
      ],
      "stateMutability": "nonpayable",
      "type": "function"
    },
    {
      "inputs": [
        {
          "internalType": "address",
          "name": "",
          "type": "address"
        },
        {
          "internalType": "address",
          "name": "",
          "type": "address"
        },
        {
          "internalType": "uint256",
          "name": "",
          "type": "uint256"
        },
        {
          "internalType": "uint256",
          "name": "",
          "type": "uint256"
        },
        {
          "internalType": "bytes",
          "name": "",
          "type": "bytes"
        }
      ],
      "name": "onERC1155Received",
      "outputs": [
        {
          "internalType": "bytes4",
          "name": "",
          "type": "bytes4"
        }
      ],
      "stateMutability": "nonpayable",
      "type": "function"
    },
    {
      "inputs": [],
      "name": "projectCount",
      "outputs": [
        {
          "internalType": "uint256",
          "name": "",
          "type": "uint256"
        }
      ],
      "stateMutability": "view",
      "type": "function"
    },
    {
      "inputs": [
        {
          "internalType": "uint256",
          "name": "",
          "type": "uint256"
        }
      ],
      "name": "projects",
      "outputs": [
        {
          "internalType": "address payable",
          "name": "owner",
          "type": "address"
        },
        {
          "internalType": "uint256",
          "name": "priceInWei",
          "type": "uint256"
        },
        {
          "internalType": "string",
          "name": "metadataUri",
          "type": "string"
        }
      ],
      "stateMutability": "view",
      "type": "function"
    },
    {
      "inputs": [],
      "name": "proofContract",
      "outputs": [
        {
          "internalType": "contract RetiredProof",
          "name": "",
          "type": "address"
        }
      ],
      "stateMutability": "view",
      "type": "function"
    },
    {
      "inputs": [
        {
          "internalType": "address",
          "name": "ngoWallet",
          "type": "address"
        },
        {
          "internalType": "uint256",
          "name": "amount",
          "type": "uint256"
        },
        {
          "internalType": "string",
          "name": "metadataUri",
          "type": "string"
        },
        {
          "internalType": "bytes32",
          "name": "certificateHash",
          "type": "bytes32"
        }
      ],
      "name": "registerProject",
      "outputs": [],
      "stateMutability": "nonpayable",
      "type": "function"
    },
    {
      "inputs": [
        {
          "internalType": "bytes32",
          "name": "role",
          "type": "bytes32"
        },
        {
          "internalType": "address",
          "name": "callerConfirmation",
          "type": "address"
        }
      ],
      "name": "renounceRole",
      "outputs": [],
      "stateMutability": "nonpayable",
      "type": "function"
    },
    {
      "inputs": [
        {
          "internalType": "uint256",
          "name": "projectId",
          "type": "uint256"
        },
        {
          "internalType": "uint256",
          "name": "amount",
          "type": "uint256"
        },
        {
          "internalType": "string",
          "name": "retirementUri",
          "type": "string"
        }
      ],
      "name": "retireTokens",
      "outputs": [],
      "stateMutability": "nonpayable",
      "type": "function"
    },
    {
      "inputs": [
        {
          "internalType": "bytes32",
          "name": "role",
          "type": "bytes32"
        },
        {
          "internalType": "address",
          "name": "account",
          "type": "address"
        }
      ],
      "name": "revokeRole",
      "outputs": [],
      "stateMutability": "nonpayable",
      "type": "function"
    },
    {
      "inputs": [
        {
          "internalType": "uint256",
          "name": "projectId",
          "type": "uint256"
        },
        {
          "internalType": "uint256",
          "name": "priceInWei",
          "type": "uint256"
        }
      ],
      "name": "setTokenPrice",
      "outputs": [],
      "stateMutability": "nonpayable",
      "type": "function"
    },
    {
      "inputs": [
        {
          "internalType": "bytes4",
          "name": "interfaceId",
          "type": "bytes4"
        }
      ],
      "name": "supportsInterface",
      "outputs": [
        {
          "internalType": "bool",
          "name": "",
          "type": "bool"
        }
      ],
      "stateMutability": "view",
      "type": "function"
    },
    {
      "inputs": [],
      "name": "tokenContract",
      "outputs": [
        {
          "internalType": "contract CarbonToken",
          "name": "",
          "type": "address"
        }
      ],
      "stateMutability": "view",
      "type": "function"
    },
    {
      "inputs": [
        {
          "internalType": "address",
          "name": "user",
          "type": "address"
        },
        {
          "internalType": "uint256",
          "name": "",
          "type": "uint256"
        }
      ],
      "name": "userPurchasedProjects",
      "outputs": [
        {
          "internalType": "uint256",
          "name": "projectIds",
          "type": "uint256"
        }
      ],
      "stateMutability": "view",
      "type": "function"
    }
  ],
  "bytecode": "0x608060405234801561000f575f5ffd5b50604051611ac2380380611ac283398101604081905261002e9161016d565b600580546001600160a01b038086166001600160a01b0319928316179092556006805485841690831617905560078054928416929091169190911790556100755f336100a9565b506100a07f0ce23c3e399818cfee81a7ab0880f714e53d7672b08df0fa62f2843416e1ea09336100a9565b505050506101ad565b5f828152602081815260408083206001600160a01b038516845290915281205460ff16610149575f838152602081815260408083206001600160a01b03861684529091529020805460ff191660011790556101013390565b6001600160a01b0316826001600160a01b0316847f2f8788117e7eff1d82e926ec794901d17c78024a50270940304540a733656f0d60405160405180910390a450600161014c565b505f5b92915050565b80516001600160a01b0381168114610168575f5ffd5b919050565b5f5f5f6060848603121561017f575f5ffd5b61018884610152565b925061019660208501610152565b91506101a460408501610152565b90509250925092565b611908806101ba5f395ff3fe608060405260043610610147575f3560e01c80637975ce28116100b3578063bc197c811161006d578063bc197c81146103e8578063d547741f1461042c578063e7705db61461044b578063eb685c471461047e578063f23a6e611461049d578063f8106bf1146104c8575f5ffd5b80637975ce281461032c5780637b03fa0f1461033f57806391d148541461035e5780639c2add651461037d578063a217fddf146103b6578063aa943b2f146103c9575f5ffd5b806336fbad261161010457806336fbad26146102575780633dc44bbb1461026c57806348ff3c081461028b578063552c83ef146102b757806355a373d6146102d6578063779c7ac31461030d575f5ffd5b806301ffc9a71461014b578063107046bd1461017f57806320021d8b146101ad578063248a9ca3146101db5780632f2ff15d1461021757806336568abe14610238575b5f5ffd5b348015610156575f5ffd5b5061016a61016536600461122b565b6104dc565b60405190151581526020015b60405180910390f35b34801561018a575f5ffd5b5061019e610199366004611259565b6104ec565b6040516101769392919061129e565b3480156101b8575f5ffd5b5061016a6101c7366004611259565b60086020525f908152604090205460ff1681565b3480156101e6575f5ffd5b506102096101f5366004611259565b5f9081526020819052604090206001015490565b604051908152602001610176565b348015610222575f5ffd5b506102366102313660046112e8565b6105a0565b005b348015610243575f5ffd5b506102366102523660046112e8565b6105ca565b348015610262575f5ffd5b5061020960015481565b348015610277575f5ffd5b506102366102863660046113c9565b610602565b348015610296575f5ffd5b506102aa6102a5366004611415565b61072b565b604051610176919061142e565b3480156102c2575f5ffd5b506102366102d1366004611470565b610794565b3480156102e1575f5ffd5b506006546102f5906001600160a01b031681565b6040516001600160a01b039091168152602001610176565b348015610318575f5ffd5b506005546102f5906001600160a01b031681565b61023661033a3660046114cb565b610a2f565b34801561034a575f5ffd5b506007546102f5906001600160a01b031681565b348015610369575f5ffd5b5061016a6103783660046112e8565b610ddb565b348015610388575f5ffd5b5061016a6103973660046114eb565b600460209081525f928352604080842090915290825290205460ff1681565b3480156103c1575f5ffd5b506102095f81565b3480156103d4575f5ffd5b506102096103e33660046114eb565b610e03565b3480156103f3575f5ffd5b50610413610402366004611593565b63bc197c8160e01b95945050505050565b6040516001600160e01b03199091168152602001610176565b348015610437575f5ffd5b506102366104463660046112e8565b610e2e565b348015610456575f5ffd5b506102097f0ce23c3e399818cfee81a7ab0880f714e53d7672b08df0fa62f2843416e1ea0981565b348015610489575f5ffd5b506102366104983660046114cb565b610e52565b3480156104a8575f5ffd5b506104136104b7366004611642565b63f23a6e6160e01b95945050505050565b3480156104d3575f5ffd5b50610236610f76565b5f6104e682611091565b92915050565b600260208190525f91825260409091208054600182015492820180546001600160a01b0390921693929161051f90611696565b80601f016020809104026020016040519081016040528092919081815260200182805461054b90611696565b80156105965780601f1061056d57610100808354040283529160200191610596565b820191905f5260205f20905b81548152906001019060200180831161057957829003601f168201915b5050505050905083565b5f828152602081905260409020600101546105ba816110b5565b6105c483836110c2565b50505050565b6001600160a01b03811633146105f35760405163334bd91960e11b815260040160405180910390fd5b6105fd8282611151565b505050565b5f821161062a5760405162461bcd60e51b8152600401610621906116ce565b60405180910390fd5b600654604051637a94c56560e11b815233600482015260248101859052604481018490526001600160a01b039091169063f5298aca906064015f604051808303815f87803b15801561067a575f5ffd5b505af115801561068c573d5f5f3e3d5ffd5b5050600754604051636902622f60e11b81526001600160a01b03909116925063d204c45e91506106c29033908590600401611703565b5f604051808303815f87803b1580156106d9575f5ffd5b505af11580156106eb573d5f5f3e3d5ffd5b50506040518481523392508591507ff0574f956cbe7265184805f95bdc33458945da29c31d509fcc177e29b4018d829060200160405180910390a3505050565b6001600160a01b0381165f9081526003602090815260409182902080548351818402810184019094528084526060939283018282801561078857602002820191905f5260205f20905b815481526020019060010190808311610774575b50505050509050919050565b7f0ce23c3e399818cfee81a7ab0880f714e53d7672b08df0fa62f2843416e1ea096107be816110b5565b5f8281526008602052604090205460ff161561081c5760405162461bcd60e51b815260206004820152601d60248201527f4365727469666963617465206861736820616c726561647920757365640000006044820152606401610621565b6001600160a01b0385166108675760405162461bcd60e51b8152602060048201526012602482015271125b9d985b1a59081391d3c81dd85b1b195d60721b6044820152606401610621565b5f84116108865760405162461bcd60e51b8152600401610621906116ce565b5f828152600860205260408120805460ff191660019081179091558054916108ad83611742565b909155505060018054604080516060810182526001600160a01b0389811682525f60208084018281528486018b815287845260029283905295909220845181546001600160a01b03191694169390931783559051958201959095559151929390929082019061091c90826117a5565b5050600554604051633349e71f60e21b81526001600160a01b03909116915063cd279c7c906109539089908590899060040161129e565b5f604051808303815f87803b15801561096a575f5ffd5b505af115801561097c573d5f5f3e3d5ffd5b505060065460405163bb7fde7160e01b81526001600160a01b03909116925063bb7fde7191506109b690309085908a908a90600401611860565b5f604051808303815f87803b1580156109cd575f5ffd5b505af11580156109df573d5f5f3e3d5ffd5b50505050856001600160a01b0316817f748ae8842c117f4184bba8a230aa90d16a1d34bfc9729c8395877d0ad8acbc6f8787604051610a1f92919061188c565b60405180910390a3505050505050565b5f828152600260205260409020600181015481546001600160a01b031681610a995760405162461bcd60e51b815260206004820152601e60248201527f5072696365206e6f742073657420666f7220746869732070726f6a65637400006044820152606401610621565b6001600160a01b038116610ae35760405162461bcd60e51b8152602060048201526011602482015270141c9bda9958dd081b9bdd08199bdd5b99607a1b6044820152606401610621565b5f8411610b025760405162461bcd60e51b8152600401610621906116ce565b5f610b0d85846118a4565b9050803414610b535760405162461bcd60e51b8152602060048201526012602482015271125b98dbdc9c9958dd08115512081cd95b9d60721b6044820152606401610621565b600654604051627eeac760e11b8152306004820152602481018890525f916001600160a01b03169062fdd58e90604401602060405180830381865afa158015610b9e573d5f5f3e3d5ffd5b505050506040513d601f19601f82011682018060405250810190610bc291906118bb565b905085811015610c145760405162461bcd60e51b815260206004820152601b60248201527f4e6f7420656e6f75676820746f6b656e7320696e20657363726f7700000000006044820152606401610621565b600654604051637921219560e11b8152306004820152336024820152604481018990526064810188905260a060848201525f60a48201526001600160a01b039091169063f242432a9060c4015f604051808303815f87803b158015610c77575f5ffd5b505af1158015610c89573d5f5f3e3d5ffd5b5050335f9081526004602090815260408083208c845290915290205460ff169150610cf2905057335f818152600360209081526040808320805460018181018355918552838520018c9055938352600482528083208b84529091529020805460ff191690911790555b5f836001600160a01b0316836040515f6040518083038185875af1925050503d805f8114610d3b576040519150601f19603f3d011682016040523d82523d5f602084013e610d40565b606091505b5050905080610d895760405162461bcd60e51b815260206004820152601560248201527414185e5b595b9d081d1bc81391d3c819985a5b1959605a1b6044820152606401610621565b60408051888152602081018590526001600160a01b0386169133918b917f06a468bc780ea805d80491ed9f300c36122c94bcb715acc7a8606f510f6c2ecd910160405180910390a45050505050505050565b5f918252602082815260408084206001600160a01b0393909316845291905290205460ff1690565b6003602052815f5260405f208181548110610e1c575f80fd5b905f5260205f20015f91509150505481565b5f82815260208190526040902060010154610e48816110b5565b6105c48383611151565b7f0ce23c3e399818cfee81a7ab0880f714e53d7672b08df0fa62f2843416e1ea09610e7c816110b5565b5f838152600260205260409020546001600160a01b0316610ed35760405162461bcd60e51b8152602060048201526011602482015270141c9bda9958dd081b9bdd08199bdd5b99607a1b6044820152606401610621565b5f8211610f225760405162461bcd60e51b815260206004820152601f60248201527f5072696365206d7573742062652067726561746572207468616e207a65726f006044820152606401610621565b5f83815260026020526040908190206001018390555183907fa0f1665b7b659537b52deec61ea64d134a3bccda74c7f4e79f2246e7a8187a8a90610f699085815260200190565b60405180910390a2505050565b5f610f80816110b5565b600554604051633549294760e11b81523060048201819052916001600160a01b031690636a92528e906024015f604051808303815f87803b158015610fc3575f5ffd5b505af1158015610fd5573d5f5f3e3d5ffd5b5050600654604051632b2e529160e11b81526001600160a01b038581166004830152909116925063565ca52291506024015f604051808303815f87803b15801561101d575f5ffd5b505af115801561102f573d5f5f3e3d5ffd5b5050600754604051633549294760e11b81526001600160a01b0385811660048301529091169250636a92528e91506024015f604051808303815f87803b158015611077575f5ffd5b505af1158015611089573d5f5f3e3d5ffd5b505050505050565b5f6001600160e01b03198216630271189760e51b14806104e657506104e6826111ba565b6110bf81336111ee565b50565b5f6110cd8383610ddb565b61114a575f838152602081815260408083206001600160a01b03861684529091529020805460ff191660011790556111023390565b6001600160a01b0316826001600160a01b0316847f2f8788117e7eff1d82e926ec794901d17c78024a50270940304540a733656f0d60405160405180910390a45060016104e6565b505f6104e6565b5f61115c8383610ddb565b1561114a575f838152602081815260408083206001600160a01b0386168085529252808320805460ff1916905551339286917ff6391f5c32d9c69d2a47ea670b442974b53935d1edc7fd64eb21e047a839171b9190a45060016104e6565b5f6001600160e01b03198216637965db0b60e01b14806104e657506301ffc9a760e01b6001600160e01b03198316146104e6565b6111f88282610ddb565b6112275760405163e2517d3f60e01b81526001600160a01b038216600482015260248101839052604401610621565b5050565b5f6020828403121561123b575f5ffd5b81356001600160e01b031981168114611252575f5ffd5b9392505050565b5f60208284031215611269575f5ffd5b5035919050565b5f81518084528060208401602086015e5f602082860101526020601f19601f83011685010191505092915050565b60018060a01b0384168152826020820152606060408201525f6112c46060830184611270565b95945050505050565b80356001600160a01b03811681146112e3575f5ffd5b919050565b5f5f604083850312156112f9575f5ffd5b82359150611309602084016112cd565b90509250929050565b634e487b7160e01b5f52604160045260245ffd5b604051601f8201601f1916810167ffffffffffffffff8111828210171561134f5761134f611312565b604052919050565b5f82601f830112611366575f5ffd5b8135602083015f5f67ffffffffffffffff84111561138657611386611312565b50601f8301601f191660200161139b81611326565b9150508281528583830111156113af575f5ffd5b828260208301375f92810160200192909252509392505050565b5f5f5f606084860312156113db575f5ffd5b8335925060208401359150604084013567ffffffffffffffff8111156113ff575f5ffd5b61140b86828701611357565b9150509250925092565b5f60208284031215611425575f5ffd5b611252826112cd565b602080825282518282018190525f918401906040840190835b81811015611465578351835260209384019390920191600101611447565b509095945050505050565b5f5f5f5f60808587031215611483575f5ffd5b61148c856112cd565b935060208501359250604085013567ffffffffffffffff8111156114ae575f5ffd5b6114ba87828801611357565b949793965093946060013593505050565b5f5f604083850312156114dc575f5ffd5b50508035926020909101359150565b5f5f604083850312156114fc575f5ffd5b611505836112cd565b946020939093013593505050565b5f82601f830112611522575f5ffd5b813567ffffffffffffffff81111561153c5761153c611312565b8060051b61154c60208201611326565b91825260208185018101929081019086841115611567575f5ffd5b6020860192505b8383101561158957823582526020928301929091019061156e565b9695505050505050565b5f5f5f5f5f60a086880312156115a7575f5ffd5b6115b0866112cd565b94506115be602087016112cd565b9350604086013567ffffffffffffffff8111156115d9575f5ffd5b6115e588828901611513565b935050606086013567ffffffffffffffff811115611601575f5ffd5b61160d88828901611513565b925050608086013567ffffffffffffffff811115611629575f5ffd5b61163588828901611357565b9150509295509295909350565b5f5f5f5f5f60a08688031215611656575f5ffd5b61165f866112cd565b945061166d602087016112cd565b93506040860135925060608601359150608086013567ffffffffffffffff811115611629575f5ffd5b600181811c908216806116aa57607f821691505b6020821081036116c857634e487b7160e01b5f52602260045260245ffd5b50919050565b6020808252818101527f416d6f756e74206d7573742062652067726561746572207468616e207a65726f604082015260600190565b6001600160a01b03831681526040602082018190525f9061172690830184611270565b949350505050565b634e487b7160e01b5f52601160045260245ffd5b5f600182016117535761175361172e565b5060010190565b601f8211156105fd57805f5260205f20601f840160051c8101602085101561177f5750805b601f840160051c820191505b8181101561179e575f815560010161178b565b5050505050565b815167ffffffffffffffff8111156117bf576117bf611312565b6117d3816117cd8454611696565b8461175a565b6020601f821160018114611805575f83156117ee5750848201515b5f19600385901b1c1916600184901b17845561179e565b5f84815260208120601f198516915b828110156118345787850151825560209485019460019092019101611814565b508482101561185157868401515f19600387901b60f8161c191681555b50505050600190811b01905550565b60018060a01b0385168152836020820152826040820152608060608201525f6115896080830184611270565b828152604060208201525f6117266040830184611270565b80820281158282048414176104e6576104e661172e565b5f602082840312156118cb575f5ffd5b505191905056fea26469706673582212204d8a100167962e199055cda227b5123396fc21bf18acf9fe861790016255b4bf64736f6c634300081c0033",
  "linkReferences": {},
  "deployedLinkReferences": {},
  "immutableReferences": {},
  "inputSourceName": "project/contracts/CarbonFiCore.sol",
  "buildInfoId": "solc-0_8_28-806790459b7784304687c0710de3fd4b9ff22961"
}