{
  "_format": "hh3-artifact-1",
  "contractName": "ProjectCertificate",
  "sourceName": "contracts/ProjectCertificate.sol",
  "abi": [
    {
      "inputs": [],
      "stateMutability": "nonpayable",
      "type": "constructor"
    },
    {
      "inputs": [],
      "name": "AccessControlBadConfirmation",
      "type": "error"
    },
    {
      "inputs": [
        {
          "internalType": "address",
          "name": "account",
          "type": "address"
        },
        {
          "internalType": "bytes32",
          "name": "neededRole",
          "type": "bytes32"
        }
      ],
      "name": "AccessControlUnauthorizedAccount",
      "type": "error"
    },
    {
      "inputs": [
        {
          "internalType": "address",
          "name": "sender",
          "type": "address"
        },
        {
          "internalType": "uint256",
          "name": "tokenId",
          "type": "uint256"
        },
        {
          "internalType": "address",
          "name": "owner",
          "type": "address"
        }
      ],
      "name": "ERC721IncorrectOwner",
      "type": "error"
    },
    {
      "inputs": [
        {
          "internalType": "address",
          "name": "operator",
          "type": "address"
        },
        {
          "internalType": "uint256",
          "name": "tokenId",
          "type": "uint256"
        }
      ],
      "name": "ERC721InsufficientApproval",
      "type": "error"
    },
    {
      "inputs": [
        {
          "internalType": "address",
          "name": "approver",
          "type": "address"
        }
      ],
      "name": "ERC721InvalidApprover",
      "type": "error"
    },
    {
      "inputs": [
        {
          "internalType": "address",
          "name": "operator",
          "type": "address"
        }
      ],
      "name": "ERC721InvalidOperator",
      "type": "error"
    },
    {
      "inputs": [
        {
          "internalType": "address",
          "name": "owner",
          "type": "address"
        }
      ],
      "name": "ERC721InvalidOwner",
      "type": "error"
    },
    {
      "inputs": [
        {
          "internalType": "address",
          "name": "receiver",
          "type": "address"
        }
      ],
      "name": "ERC721InvalidReceiver",
      "type": "error"
    },
    {
      "inputs": [
        {
          "internalType": "address",
          "name": "sender",
          "type": "address"
        }
      ],
      "name": "ERC721InvalidSender",
      "type": "error"
    },
    {
      "inputs": [
        {
          "internalType": "uint256",
          "name": "tokenId",
          "type": "uint256"
        }
      ],
      "name": "ERC721NonexistentToken",
      "type": "error"
    },
    {
      "anonymous": false,
      "inputs": [
        {
          "indexed": true,
          "internalType": "address",
          "name": "owner",
          "type": "address"
        },
        {
          "indexed": true,
          "internalType": "address",
          "name": "approved",
          "type": "address"
        },
        {
          "indexed": true,
          "internalType": "uint256",
          "name": "tokenId",
          "type": "uint256"
        }
      ],
      "name": "Approval",
      "type": "event"
    },
    {
      "anonymous": false,
      "inputs": [
        {
          "indexed": true,
          "internalType": "address",
          "name": "owner",
          "type": "address"
        },
        {
          "indexed": true,
          "internalType": "address",
          "name": "operator",
          "type": "address"
        },
        {
          "indexed": false,
          "internalType": "bool",
          "name": "approved",
          "type": "bool"
        }
      ],
      "name": "ApprovalForAll",
      "type": "event"
    },
    {
      "anonymous": false,
      "inputs": [
        {
          "indexed": false,
          "internalType": "uint256",
          "name": "_fromTokenId",
          "type": "uint256"
        },
        {
          "indexed": false,
          "internalType": "uint256",
          "name": "_toTokenId",
          "type": "uint256"
        }
      ],
      "name": "BatchMetadataUpdate",
      "type": "event"
    },
    {
      "anonymous": false,
      "inputs": [
        {
          "indexed": false,
          "internalType": "uint256",
          "name": "_tokenId",
          "type": "uint256"
        }
      ],
      "name": "MetadataUpdate",
      "type": "event"
    },
    {
      "anonymous": false,
      "inputs": [
        {
          "indexed": true,
          "internalType": "bytes32",
          "name": "role",
          "type": "bytes32"
        },
        {
          "indexed": true,
          "internalType": "bytes32",
          "name": "previousAdminRole",
          "type": "bytes32"
        },
        {
          "indexed": true,
          "internalType": "bytes32",
          "name": "newAdminRole",
          "type": "bytes32"
        }
      ],
      "name": "RoleAdminChanged",
      "type": "event"
    },
    {
      "anonymous": false,
      "inputs": [
        {
          "indexed": true,
          "internalType": "bytes32",
          "name": "role",
          "type": "bytes32"
        },
        {
          "indexed": true,
          "internalType": "address",
          "name": "account",
          "type": "address"
        },
        {
          "indexed": true,
          "internalType": "address",
          "name": "sender",
          "type": "address"
        }
      ],
      "name": "RoleGranted",
      "type": "event"
    },
    {
      "anonymous": false,
      "inputs": [
        {
          "indexed": true,
          "internalType": "bytes32",
          "name": "role",
          "type": "bytes32"
        },
        {
          "indexed": true,
          "internalType": "address",
          "name": "account",
          "type": "address"
        },
        {
          "indexed": true,
          "internalType": "address",
          "name": "sender",
          "type": "address"
        }
      ],
      "name": "RoleRevoked",
      "type": "event"
    },
    {
      "anonymous": false,
      "inputs": [
        {
          "indexed": true,
          "internalType": "address",
          "name": "from",
          "type": "address"
        },
        {
          "indexed": true,
          "internalType": "address",
          "name": "to",
          "type": "address"
        },
        {
          "indexed": true,
          "internalType": "uint256",
          "name": "tokenId",
          "type": "uint256"
        }
      ],
      "name": "Transfer",
      "type": "event"
    },
    {
      "inputs": [],
      "name": "DEFAULT_ADMIN_ROLE",
      "outputs": [
        {
          "internalType": "bytes32",
          "name": "",
          "type": "bytes32"
        }
      ],
      "stateMutability": "view",
      "type": "function"
    },
    {
      "inputs": [],
      "name": "MINTER_ROLE",
      "outputs": [
        {
          "internalType": "bytes32",
          "name": "",
          "type": "bytes32"
        }
      ],
      "stateMutability": "view",
      "type": "function"
    },
    {
      "inputs": [
        {
          "internalType": "address",
          "name": "to",
          "type": "address"
        },
        {
          "internalType": "uint256",
          "name": "tokenId",
          "type": "uint256"
        }
      ],
      "name": "approve",
      "outputs": [],
      "stateMutability": "nonpayable",
      "type": "function"
    },
    {
      "inputs": [
        {
          "internalType": "address",
          "name": "owner",
          "type": "address"
        }
      ],
      "name": "balanceOf",
      "outputs": [
        {
          "internalType": "uint256",
          "name": "",
          "type": "uint256"
        }
      ],
      "stateMutability": "view",
      "type": "function"
    },
    {
      "inputs": [
        {
          "internalType": "uint256",
          "name": "tokenId",
          "type": "uint256"
        }
      ],
      "name": "getApproved",
      "outputs": [
        {
          "internalType": "address",
          "name": "",
          "type": "address"
        }
      ],
      "stateMutability": "view",
      "type": "function"
    },
    {
      "inputs": [
        {
          "internalType": "bytes32",
          "name": "role",
          "type": "bytes32"
        }
      ],
      "name": "getRoleAdmin",
      "outputs": [
        {
          "internalType": "bytes32",
          "name": "",
          "type": "bytes32"
        }
      ],
      "stateMutability": "view",
      "type": "function"
    },
    {
      "inputs": [
        {
          "internalType": "bytes32",
          "name": "role",
          "type": "bytes32"
        },
        {
          "internalType": "address",
          "name": "account",
          "type": "address"
        }
      ],
      "name": "grantRole",
      "outputs": [],
      "stateMutability": "nonpayable",
      "type": "function"
    },
    {
      "inputs": [
        {
          "internalType": "bytes32",
          "name": "role",
          "type": "bytes32"
        },
        {
          "internalType": "address",
          "name": "account",
          "type": "address"
        }
      ],
      "name": "hasRole",
      "outputs": [
        {
          "internalType": "bool",
          "name": "",
          "type": "bool"
        }
      ],
      "stateMutability": "view",
      "type": "function"
    },
    {
      "inputs": [
        {
          "internalType": "address",
          "name": "owner",
          "type": "address"
        },
        {
          "internalType": "address",
          "name": "operator",
          "type": "address"
        }
      ],
      "name": "isApprovedForAll",
      "outputs": [
        {
          "internalType": "bool",
          "name": "",
          "type": "bool"
        }
      ],
      "stateMutability": "view",
      "type": "function"
    },
    {
      "inputs": [],
      "name": "name",
      "outputs": [
        {
          "internalType": "string",
          "name": "",
          "type": "string"
        }
      ],
      "stateMutability": "view",
      "type": "function"
    },
    {
      "inputs": [
        {
          "internalType": "uint256",
          "name": "tokenId",
          "type": "uint256"
        }
      ],
      "name": "ownerOf",
      "outputs": [
        {
          "internalType": "address",
          "name": "",
          "type": "address"
        }
      ],
      "stateMutability": "view",
      "type": "function"
    },
    {
      "inputs": [
        {
          "internalType": "bytes32",
          "name": "role",
          "type": "bytes32"
        },
        {
          "internalType": "address",
          "name": "callerConfirmation",
          "type": "address"
        }
      ],
      "name": "renounceRole",
      "outputs": [],
      "stateMutability": "nonpayable",
      "type": "function"
    },
    {
      "inputs": [
        {
          "internalType": "bytes32",
          "name": "role",
          "type": "bytes32"
        },
        {
          "internalType": "address",
          "name": "account",
          "type": "address"
        }
      ],
      "name": "revokeRole",
      "outputs": [],
      "stateMutability": "nonpayable",
      "type": "function"
    },
    {
      "inputs": [
        {
          "internalType": "address",
          "name": "to",
          "type": "address"
        },
        {
          "internalType": "uint256",
          "name": "tokenId",
          "type": "uint256"
        },
        {
          "internalType": "string",
          "name": "uri",
          "type": "string"
        }
      ],
      "name": "safeMint",
      "outputs": [],
      "stateMutability": "nonpayable",
      "type": "function"
    },
    {
      "inputs": [
        {
          "internalType": "address",
          "name": "from",
          "type": "address"
        },
        {
          "internalType": "address",
          "name": "to",
          "type": "address"
        },
        {
          "internalType": "uint256",
          "name": "tokenId",
          "type": "uint256"
        }
      ],
      "name": "safeTransferFrom",
      "outputs": [],
      "stateMutability": "nonpayable",
      "type": "function"
    },
    {
      "inputs": [
        {
          "internalType": "address",
          "name": "from",
          "type": "address"
        },
        {
          "internalType": "address",
          "name": "to",
          "type": "address"
        },
        {
          "internalType": "uint256",
          "name": "tokenId",
          "type": "uint256"
        },
        {
          "internalType": "bytes",
          "name": "data",
          "type": "bytes"
        }
      ],
      "name": "safeTransferFrom",
      "outputs": [],
      "stateMutability": "nonpayable",
      "type": "function"
    },
    {
      "inputs": [
        {
          "internalType": "address",
          "name": "operator",
          "type": "address"
        },
        {
          "internalType": "bool",
          "name": "approved",
          "type": "bool"
        }
      ],
      "name": "setApprovalForAll",
      "outputs": [],
      "stateMutability": "nonpayable",
      "type": "function"
    },
    {
      "inputs": [
        {
          "internalType": "address",
          "name": "coreAddress",
          "type": "address"
        }
      ],
      "name": "setupCoreMinter",
      "outputs": [],
      "stateMutability": "nonpayable",
      "type": "function"
    },
    {
      "inputs": [
        {
          "internalType": "bytes4",
          "name": "interfaceId",
          "type": "bytes4"
        }
      ],
      "name": "supportsInterface",
      "outputs": [
        {
          "internalType": "bool",
          "name": "",
          "type": "bool"
        }
      ],
      "stateMutability": "view",
      "type": "function"
    },
    {
      "inputs": [],
      "name": "symbol",
      "outputs": [
        {
          "internalType": "string",
          "name": "",
          "type": "string"
        }
      ],
      "stateMutability": "view",
      "type": "function"
    },
    {
      "inputs": [
        {
          "internalType": "uint256",
          "name": "tokenId",
          "type": "uint256"
        }
      ],
      "name": "tokenURI",
      "outputs": [
        {
          "internalType": "string",
          "name": "",
          "type": "string"
        }
      ],
      "stateMutability": "view",
      "type": "function"
    },
    {
      "inputs": [
        {
          "internalType": "address",
          "name": "from",
          "type": "address"
        },
        {
          "internalType": "address",
          "name": "to",
          "type": "address"
        },
        {
          "internalType": "uint256",
          "name": "tokenId",
          "type": "uint256"
        }
      ],
      "name": "transferFrom",
      "outputs": [],
      "stateMutability": "nonpayable",
      "type": "function"
    }
  ],
  "bytecode": "0x608060405234801561000f575f5ffd5b506040518060400160405280601c81526020017f436172626f6e46692050726f6a656374204365727469666963617465000000008152506040518060400160405280600681526020016510d190d1549560d21b815250815f90816100739190610205565b5060016100808282610205565b5061008f91505f9050336100c0565b506100ba7f9f2df0fed2c77648de5860a4cc508cd0818c85b8b8a1ab4ceeef8d981c8956a6336100c0565b506102bf565b5f8281526007602090815260408083206001600160a01b038516845290915281205460ff16610164575f8381526007602090815260408083206001600160a01b03861684529091529020805460ff1916600117905561011c3390565b6001600160a01b0316826001600160a01b0316847f2f8788117e7eff1d82e926ec794901d17c78024a50270940304540a733656f0d60405160405180910390a4506001610167565b505f5b92915050565b634e487b7160e01b5f52604160045260245ffd5b600181811c9082168061019557607f821691505b6020821081036101b357634e487b7160e01b5f52602260045260245ffd5b50919050565b601f82111561020057805f5260205f20601f840160051c810160208510156101de5750805b601f840160051c820191505b818110156101fd575f81556001016101ea565b50505b505050565b81516001600160401b0381111561021e5761021e61016d565b6102328161022c8454610181565b846101b9565b6020601f821160018114610264575f831561024d5750848201515b5f19600385901b1c1916600184901b1784556101fd565b5f84815260208120601f198516915b828110156102935787850151825560209485019460019092019101610273565b50848210156102b057868401515f19600387901b60f8161c191681555b50505050600190811b01905550565b6115b1806102cc5f395ff3fe608060405234801561000f575f5ffd5b506004361061013d575f3560e01c806370a08231116100b4578063b88d4fde11610079578063b88d4fde146102a8578063c87b56dd146102bb578063cd279c7c146102ce578063d5391393146102e1578063d547741f14610308578063e985e9c51461031b575f5ffd5b806370a082311461026057806391d148541461027357806395d89b4114610286578063a217fddf1461028e578063a22cb46514610295575f5ffd5b8063248a9ca311610105578063248a9ca3146101d15780632f2ff15d1461020157806336568abe1461021457806342842e0e146102275780636352211e1461023a5780636a92528e1461024d575f5ffd5b806301ffc9a71461014157806306fdde0314610169578063081812fc1461017e578063095ea7b3146101a957806323b872dd146101be575b5f5ffd5b61015461014f3660046110c7565b61032e565b60405190151581526020015b60405180910390f35b61017161033e565b6040516101609190611110565b61019161018c366004611122565b6103cd565b6040516001600160a01b039091168152602001610160565b6101bc6101b7366004611154565b6103f4565b005b6101bc6101cc36600461117c565b610403565b6101f36101df366004611122565b5f9081526007602052604090206001015490565b604051908152602001610160565b6101bc61020f3660046111b6565b610491565b6101bc6102223660046111b6565b6104b5565b6101bc61023536600461117c565b6104ed565b610191610248366004611122565b610507565b6101bc61025b3660046111e0565b610511565b6101f361026e3660046111e0565b610545565b6101546102813660046111b6565b61058a565b6101716105b4565b6101f35f81565b6101bc6102a33660046111f9565b6105c3565b6101bc6102b63660046112bd565b6105ce565b6101716102c9366004611122565b6105e6565b6101bc6102dc366004611334565b6105f1565b6101f37f9f2df0fed2c77648de5860a4cc508cd0818c85b8b8a1ab4ceeef8d981c8956a681565b6101bc6103163660046111b6565b61062f565b61015461032936600461139a565b610653565b5f61033882610680565b92915050565b60605f805461034c906113c2565b80601f0160208091040260200160405190810160405280929190818152602001828054610378906113c2565b80156103c35780601f1061039a576101008083540402835291602001916103c3565b820191905f5260205f20905b8154815290600101906020018083116103a657829003601f168201915b5050505050905090565b5f6103d7826106a4565b505f828152600460205260409020546001600160a01b0316610338565b6103ff8282336106dc565b5050565b6001600160a01b03821661043157604051633250574960e11b81525f60048201526024015b60405180910390fd5b5f61043d8383336106e9565b9050836001600160a01b0316816001600160a01b03161461048b576040516364283d7b60e01b81526001600160a01b0380861660048301526024820184905282166044820152606401610428565b50505050565b5f828152600760205260409020600101546104ab816107db565b61048b83836107e8565b6001600160a01b03811633146104de5760405163334bd91960e11b815260040160405180910390fd5b6104e88282610879565b505050565b6104e883838360405180602001604052805f8152506105ce565b5f610338826106a4565b5f61051b816107db565b6104e87f9f2df0fed2c77648de5860a4cc508cd0818c85b8b8a1ab4ceeef8d981c8956a6836107e8565b5f6001600160a01b03821661056f576040516322718ad960e21b81525f6004820152602401610428565b506001600160a01b03165f9081526003602052604090205490565b5f9182526007602090815260408084206001600160a01b0393909316845291905290205460ff1690565b60606001805461034c906113c2565b6103ff3383836108e4565b6105d9848484610403565b61048b3385858585610982565b606061033882610aaa565b7f9f2df0fed2c77648de5860a4cc508cd0818c85b8b8a1ab4ceeef8d981c8956a661061b816107db565b6106258484610bb5565b61048b8383610c16565b5f82815260076020526040902060010154610649816107db565b61048b8383610879565b6001600160a01b039182165f90815260056020908152604080832093909416825291909152205460ff1690565b5f6001600160e01b03198216637965db0b60e01b1480610338575061033882610c65565b5f818152600260205260408120546001600160a01b03168061033857604051637e27328960e01b815260048101849052602401610428565b6104e88383836001610c89565b5f828152600260205260408120546001600160a01b039081169083161561071557610715818486610d8d565b6001600160a01b0381161561074f576107305f855f5f610c89565b6001600160a01b0381165f90815260036020526040902080545f190190555b6001600160a01b0385161561077d576001600160a01b0385165f908152600360205260409020805460010190555b5f8481526002602052604080822080546001600160a01b0319166001600160a01b0389811691821790925591518793918516917fddf252ad1be2c89b69c2b068fc378daa952ba7f163c4a11628f55a4df523b3ef91a4949350505050565b6107e58133610df1565b50565b5f6107f3838361058a565b610872575f8381526007602090815260408083206001600160a01b03861684529091529020805460ff1916600117905561082a3390565b6001600160a01b0316826001600160a01b0316847f2f8788117e7eff1d82e926ec794901d17c78024a50270940304540a733656f0d60405160405180910390a4506001610338565b505f610338565b5f610884838361058a565b15610872575f8381526007602090815260408083206001600160a01b0386168085529252808320805460ff1916905551339286917ff6391f5c32d9c69d2a47ea670b442974b53935d1edc7fd64eb21e047a839171b9190a4506001610338565b6001600160a01b03821661091657604051630b61174360e31b81526001600160a01b0383166004820152602401610428565b6001600160a01b038381165f81815260056020908152604080832094871680845294825291829020805460ff191686151590811790915591519182527f17307eab39ab6107e8899845ad3d59bd9653f200f220920489ca2b5937696c31910160405180910390a3505050565b6001600160a01b0383163b15610aa357604051630a85bd0160e11b81526001600160a01b0384169063150b7a02906109c49088908890879087906004016113fa565b6020604051808303815f875af19250505080156109fe575060408051601f3d908101601f191682019092526109fb91810190611436565b60015b610a65573d808015610a2b576040519150601f19603f3d011682016040523d82523d5f602084013e610a30565b606091505b5080515f03610a5d57604051633250574960e11b81526001600160a01b0385166004820152602401610428565b805160208201fd5b6001600160e01b03198116630a85bd0160e11b14610aa157604051633250574960e11b81526001600160a01b0385166004820152602401610428565b505b5050505050565b6060610ab5826106a4565b505f8281526006602052604081208054610ace906113c2565b80601f0160208091040260200160405190810160405280929190818152602001828054610afa906113c2565b8015610b455780601f10610b1c57610100808354040283529160200191610b45565b820191905f5260205f20905b815481529060010190602001808311610b2857829003601f168201915b505050505090505f610b6160408051602081019091525f815290565b905080515f03610b72575092915050565b815115610ba4578082604051602001610b8c929190611468565b60405160208183030381529060405292505050919050565b610bad84610e2a565b949350505050565b6001600160a01b038216610bde57604051633250574960e11b81525f6004820152602401610428565b5f610bea83835f6106e9565b90506001600160a01b038116156104e8576040516339e3563760e11b81525f6004820152602401610428565b5f828152600660205260409020610c2d82826114c0565b506040518281527ff8e1a15aba9398e019f0b49df1a4fde98ee17ae345cb5f6b5e2c27f5033e8ce79060200160405180910390a15050565b5f6001600160e01b03198216632483248360e11b1480610338575061033882610e9b565b8080610c9d57506001600160a01b03821615155b15610d5e575f610cac846106a4565b90506001600160a01b03831615801590610cd85750826001600160a01b0316816001600160a01b031614155b8015610ceb5750610ce98184610653565b155b15610d145760405163a9fbf51f60e01b81526001600160a01b0384166004820152602401610428565b8115610d5c5783856001600160a01b0316826001600160a01b03167f8c5be1e5ebec7d5bd14f71427d1e84f3dd0314c0f7b2291e5b200ac8c7c3b92560405160405180910390a45b505b50505f90815260046020526040902080546001600160a01b0319166001600160a01b0392909216919091179055565b610d98838383610eea565b6104e8576001600160a01b038316610dc657604051637e27328960e01b815260048101829052602401610428565b60405163177e802f60e01b81526001600160a01b038316600482015260248101829052604401610428565b610dfb828261058a565b6103ff5760405163e2517d3f60e01b81526001600160a01b038216600482015260248101839052604401610428565b6060610e35826106a4565b505f610e4b60408051602081019091525f815290565b90505f815111610e695760405180602001604052805f815250610e94565b80610e7384610f4b565b604051602001610e84929190611468565b6040516020818303038152906040525b9392505050565b5f6001600160e01b031982166380ac58cd60e01b1480610ecb57506001600160e01b03198216635b5e139f60e01b145b8061033857506301ffc9a760e01b6001600160e01b0319831614610338565b5f6001600160a01b03831615801590610bad5750826001600160a01b0316846001600160a01b03161480610f235750610f238484610653565b80610bad5750505f908152600460205260409020546001600160a01b03908116911614919050565b60605f610f5783610fdb565b60010190505f8167ffffffffffffffff811115610f7657610f76611232565b6040519080825280601f01601f191660200182016040528015610fa0576020820181803683370190505b5090508181016020015b5f19016f181899199a1a9b1b9c1cb0b131b232b360811b600a86061a8153600a8504945084610faa57509392505050565b5f8072184f03e93ff9f4daa797ed6e38ed64bf6a1f0160401b83106110195772184f03e93ff9f4daa797ed6e38ed64bf6a1f0160401b830492506040015b6d04ee2d6d415b85acef81000000008310611045576d04ee2d6d415b85acef8100000000830492506020015b662386f26fc10000831061106357662386f26fc10000830492506010015b6305f5e100831061107b576305f5e100830492506008015b612710831061108f57612710830492506004015b606483106110a1576064830492506002015b600a83106103385760010192915050565b6001600160e01b0319811681146107e5575f5ffd5b5f602082840312156110d7575f5ffd5b8135610e94816110b2565b5f81518084528060208401602086015e5f602082860101526020601f19601f83011685010191505092915050565b602081525f610e9460208301846110e2565b5f60208284031215611132575f5ffd5b5035919050565b80356001600160a01b038116811461114f575f5ffd5b919050565b5f5f60408385031215611165575f5ffd5b61116e83611139565b946020939093013593505050565b5f5f5f6060848603121561118e575f5ffd5b61119784611139565b92506111a560208501611139565b929592945050506040919091013590565b5f5f604083850312156111c7575f5ffd5b823591506111d760208401611139565b90509250929050565b5f602082840312156111f0575f5ffd5b610e9482611139565b5f5f6040838503121561120a575f5ffd5b61121383611139565b915060208301358015158114611227575f5ffd5b809150509250929050565b634e487b7160e01b5f52604160045260245ffd5b5f5f67ffffffffffffffff84111561126057611260611232565b50604051601f19601f85018116603f0116810181811067ffffffffffffffff8211171561128f5761128f611232565b6040528381529050808284018510156112a6575f5ffd5b838360208301375f60208583010152509392505050565b5f5f5f5f608085870312156112d0575f5ffd5b6112d985611139565b93506112e760208601611139565b925060408501359150606085013567ffffffffffffffff811115611309575f5ffd5b8501601f81018713611319575f5ffd5b61132887823560208401611246565b91505092959194509250565b5f5f5f60608486031215611346575f5ffd5b61134f84611139565b925060208401359150604084013567ffffffffffffffff811115611371575f5ffd5b8401601f81018613611381575f5ffd5b61139086823560208401611246565b9150509250925092565b5f5f604083850312156113ab575f5ffd5b6113b483611139565b91506111d760208401611139565b600181811c908216806113d657607f821691505b6020821081036113f457634e487b7160e01b5f52602260045260245ffd5b50919050565b6001600160a01b03858116825284166020820152604081018390526080606082018190525f9061142c908301846110e2565b9695505050505050565b5f60208284031215611446575f5ffd5b8151610e94816110b2565b5f81518060208401855e5f93019283525090919050565b5f610bad6114768386611451565b84611451565b601f8211156104e857805f5260205f20601f840160051c810160208510156114a15750805b601f840160051c820191505b81811015610aa3575f81556001016114ad565b815167ffffffffffffffff8111156114da576114da611232565b6114ee816114e884546113c2565b8461147c565b6020601f821160018114611520575f83156115095750848201515b5f19600385901b1c1916600184901b178455610aa3565b5f84815260208120601f198516915b8281101561154f578785015182556020948501946001909201910161152f565b508482101561156c57868401515f19600387901b60f8161c191681555b50505050600190811b0190555056fea26469706673582212208eb08151f669c1d3ef11878528f35b802ec9bc86bb318689159d9410f98ecaca64736f6c634300081c0033",
  "linkReferences": {},
  "deployedLinkReferences": {},
  "immutableReferences": {},
  "inputSourceName": "project/contracts/ProjectCertificate.sol",
  "buildInfoId": "solc-0_8_28-2e362db737e220cebd7aa4f7d9bdef3fc4ea1e4e"
}